{
  "address": "0x9b83dFeCC73A9bEDeb976fB36600b7B2a6c88F17",
  "abi": [
    {
      "anonymous": false,
      "inputs": [
        {
          "indexed": false,
          "internalType": "uint8",
          "name": "version",
          "type": "uint8"
        }
      ],
      "name": "Initialized",
      "type": "event"
    },
    {
      "anonymous": false,
      "inputs": [
        {
          "indexed": true,
          "internalType": "address",
          "name": "previousOwner",
          "type": "address"
        },
        {
          "indexed": true,
          "internalType": "address",
          "name": "newOwner",
          "type": "address"
        }
      ],
      "name": "OwnershipTransferred",
      "type": "event"
    },
    {
      "anonymous": false,
      "inputs": [
        {
          "indexed": true,
          "internalType": "uint64",
          "name": "originAndNonce",
          "type": "uint64"
        },
        {
          "indexed": true,
          "internalType": "address",
          "name": "token",
          "type": "address"
        },
        {
          "indexed": true,
          "internalType": "address",
          "name": "recipient",
          "type": "address"
        },
        {
          "indexed": false,
          "internalType": "uint256",
          "name": "amount",
          "type": "uint256"
        }
      ],
      "name": "Receive",
      "type": "event"
    },
    {
      "anonymous": false,
      "inputs": [
        {
          "indexed": true,
          "internalType": "address",
          "name": "token",
          "type": "address"
        },
        {
          "indexed": true,
          "internalType": "address",
          "name": "from",
          "type": "address"
        },
        {
          "indexed": true,
          "internalType": "uint32",
          "name": "toDomain",
          "type": "uint32"
        },
        {
          "indexed": false,
          "internalType": "bytes32",
          "name": "toId",
          "type": "bytes32"
        },
        {
          "indexed": false,
          "internalType": "uint256",
          "name": "amount",
          "type": "uint256"
        }
      ],
      "name": "Send",
      "type": "event"
    },
    {
      "inputs": [
        {
          "internalType": "uint32",
          "name": "_domain",
          "type": "uint32"
        },
        {
          "internalType": "bytes32",
          "name": "_router",
          "type": "bytes32"
        }
      ],
      "name": "enrollRemoteRouter",
      "outputs": [],
      "stateMutability": "nonpayable",
      "type": "function"
    },
    {
      "inputs": [
        {
          "internalType": "uint32",
          "name": "_origin",
          "type": "uint32"
        },
        {
          "internalType": "uint32",
          "name": "_nonce",
          "type": "uint32"
        },
        {
          "internalType": "bytes32",
          "name": "_sender",
          "type": "bytes32"
        },
        {
          "internalType": "bytes",
          "name": "_message",
          "type": "bytes"
        }
      ],
      "name": "handle",
      "outputs": [],
      "stateMutability": "nonpayable",
      "type": "function"
    },
    {
      "inputs": [
        {
          "internalType": "address",
          "name": "_tokenRegistry",
          "type": "address"
        },
        {
          "internalType": "address",
          "name": "_xAppConnectionManager",
          "type": "address"
        }
      ],
      "name": "initialize",
      "outputs": [],
      "stateMutability": "nonpayable",
      "type": "function"
    },
    {
      "inputs": [],
      "name": "owner",
      "outputs": [
        {
          "internalType": "address",
          "name": "",
          "type": "address"
        }
      ],
      "stateMutability": "view",
      "type": "function"
    },
    {
      "inputs": [
        {
          "internalType": "uint32",
          "name": "",
          "type": "uint32"
        }
      ],
      "name": "remotes",
      "outputs": [
        {
          "internalType": "bytes32",
          "name": "",
          "type": "bytes32"
        }
      ],
      "stateMutability": "view",
      "type": "function"
    },
    {
      "inputs": [],
      "name": "renounceOwnership",
      "outputs": [],
      "stateMutability": "nonpayable",
      "type": "function"
    },
    {
      "inputs": [
        {
          "internalType": "address",
          "name": "_token",
          "type": "address"
        },
        {
          "internalType": "uint256",
          "name": "_amount",
          "type": "uint256"
        },
        {
          "internalType": "uint32",
          "name": "_destination",
          "type": "uint32"
        },
        {
          "internalType": "bytes32",
          "name": "_recipient",
          "type": "bytes32"
        }
      ],
      "name": "send",
      "outputs": [],
      "stateMutability": "nonpayable",
      "type": "function"
    },
    {
      "inputs": [
        {
          "internalType": "address",
          "name": "_token",
          "type": "address"
        },
        {
          "internalType": "uint256",
          "name": "_amount",
          "type": "uint256"
        },
        {
          "internalType": "uint32",
          "name": "_destination",
          "type": "uint32"
        },
        {
          "internalType": "bytes32",
          "name": "_remoteHook",
          "type": "bytes32"
        },
        {
          "internalType": "bytes",
          "name": "_extraData",
          "type": "bytes"
        }
      ],
      "name": "sendToHook",
      "outputs": [],
      "stateMutability": "nonpayable",
      "type": "function"
    },
    {
      "inputs": [
        {
          "internalType": "address",
          "name": "_xAppConnectionManager",
          "type": "address"
        }
      ],
      "name": "setXAppConnectionManager",
      "outputs": [],
      "stateMutability": "nonpayable",
      "type": "function"
    },
    {
      "inputs": [],
      "name": "tokenRegistry",
      "outputs": [
        {
          "internalType": "contract TokenRegistry",
          "name": "",
          "type": "address"
        }
      ],
      "stateMutability": "view",
      "type": "function"
    },
    {
      "inputs": [
        {
          "internalType": "address",
          "name": "newOwner",
          "type": "address"
        }
      ],
      "name": "transferOwnership",
      "outputs": [],
      "stateMutability": "nonpayable",
      "type": "function"
    },
    {
      "inputs": [],
      "name": "xAppConnectionManager",
      "outputs": [
        {
          "internalType": "contract XAppConnectionManager",
          "name": "",
          "type": "address"
        }
      ],
      "stateMutability": "view",
      "type": "function"
    },
    {
      "stateMutability": "payable",
      "type": "receive"
    }
  ],
  "transactionHash": "0x29ec778900705172cb89d8412dba55d831d50c1b719c6849f06e399442ebc76c",
  "args": [],
  "numDeployments": 1,
  "solcInputHash": "d216661bc5af561d28ec5fd946b59ebb",
  "bytecode": "0x608060405234801561001057600080fd5b50614b9e806100206000396000f3fe6080604052600436106100ab5760003560e01c80638da5cb5b116100645780638da5cb5b146101b15780639d23c4c7146101dc578063ab2dc3f514610207578063b49c53a714610230578063bc7dbab314610259578063f2fde38b14610282576100b2565b80631cabf08f146100b75780633339df96146100e057806341bdc8b51461010b578063485cc95514610134578063715018a61461015d57806383bbb80614610174576100b2565b366100b257005b600080fd5b3480156100c357600080fd5b506100de60048036038101906100d99190612e94565b6102ab565b005b3480156100ec57600080fd5b506100f5610392565b6040516101029190612f5a565b60405180910390f35b34801561011757600080fd5b50610132600480360381019061012d9190612f75565b6103b8565b005b34801561014057600080fd5b5061015b60048036038101906101569190612fa2565b610404565b005b34801561016957600080fd5b50610172610586565b005b34801561018057600080fd5b5061019b60048036038101906101969190612fe2565b610590565b6040516101a8919061301e565b60405180910390f35b3480156101bd57600080fd5b506101c66105a8565b6040516101d39190613048565b60405180910390f35b3480156101e857600080fd5b506101f16105d2565b6040516101fe9190613084565b60405180910390f35b34801561021357600080fd5b5061022e600480360381019061022991906131e5565b6105f8565b005b34801561023c57600080fd5b5061025760048036038101906102529190613268565b61076d565b005b34801561026557600080fd5b50610280600480360381019061027b9190613308565b61079d565b005b34801561028e57600080fd5b506102a960048036038101906102a49190612f75565b61088f565b005b6000801b81036102f0576040517f08c379a00000000000000000000000000000000000000000000000000000000081526004016102e7906133ff565b60405180910390fd5b6000806102fd8686610912565b91509150600061030e848784610d28565b905061031b858483610d7f565b8463ffffffff163373ffffffffffffffffffffffffffffffffffffffff168873ffffffffffffffffffffffffffffffffffffffff167fcf20fd9072af09cee97ee48e835f72e237cebf880d75143434214e57d6496d60878a60405161038192919061342e565b60405180910390a450505050505050565b606560009054906101000a900473ffffffffffffffffffffffffffffffffffffffff1681565b6103c0610e9a565b80606560006101000a81548173ffffffffffffffffffffffffffffffffffffffff021916908373ffffffffffffffffffffffffffffffffffffffff16021790555050565b60008060019054906101000a900460ff161590508080156104355750600160008054906101000a900460ff1660ff16105b80610462575061044430610f18565b1580156104615750600160008054906101000a900460ff1660ff16145b5b6104a1576040517f08c379a0000000000000000000000000000000000000000000000000000000008152600401610498906134c9565b60405180910390fd5b60016000806101000a81548160ff021916908360ff16021790555080156104de576001600060016101000a81548160ff0219169083151502179055505b8260c960006101000a81548173ffffffffffffffffffffffffffffffffffffffff021916908373ffffffffffffffffffffffffffffffffffffffff16021790555061052882610f3b565b80156105815760008060016101000a81548160ff0219169083151502179055507f7f26b83ff96e1f2b6a682f133852f6798a09c465da95921460cefb384740249860016040516105789190613531565b60405180910390a15b505050565b61058e610e9a565b565b60976020528060005260406000206000915090505481565b6000603360009054906101000a900473ffffffffffffffffffffffffffffffffffffffff16905090565b60c960009054906101000a900473ffffffffffffffffffffffffffffffffffffffff1681565b61060133610f87565b610640576040517f08c379a000000000000000000000000000000000000000000000000000000000815260040161063790613598565b60405180910390fd5b838261064c828261102c565b61068b576040517f08c379a000000000000000000000000000000000000000000000000000000000815260040161068290613604565b60405180910390fd5b60006106af6106a460008661106790919063ffffffff16565b62ffffff1916611092565b905060006106c28262ffffff19166110b2565b905060006106d58362ffffff191661111e565b90506106e68162ffffff19166111b5565b156106fc576106f7898984846111c9565b610762565b61070b8162ffffff19166111f1565b1561071f5761071a8282611205565b610761565b6000610760576040517f08c379a000000000000000000000000000000000000000000000000000000000815260040161075790613670565b60405180910390fd5b5b5b505050505050505050565b610775610e9a565b80609760008463ffffffff1663ffffffff168152602001908152602001600020819055505050565b6000806107aa8888610912565b9150915060006108098689846107bf3361141f565b89898080601f016020809104026020016040519081016040528093929190818152602001838380828437600081840152601f19601f82011690508083019250505050505050611442565b9050610816878483610d7f565b8663ffffffff163373ffffffffffffffffffffffffffffffffffffffff168a73ffffffffffffffffffffffffffffffffffffffff167fcf20fd9072af09cee97ee48e835f72e237cebf880d75143434214e57d6496d60898c60405161087c92919061342e565b60405180910390a4505050505050505050565b610897610e9a565b600073ffffffffffffffffffffffffffffffffffffffff168173ffffffffffffffffffffffffffffffffffffffff1603610906576040517f08c379a00000000000000000000000000000000000000000000000000000000081526004016108fd90613702565b60405180910390fd5b61090f8161149f565b50565b60008060008311610958576040517f08c379a000000000000000000000000000000000000000000000000000000000815260040161094f9061376e565b60405180910390fd5b600084905060c960009054906101000a900473ffffffffffffffffffffffffffffffffffffffff1673ffffffffffffffffffffffffffffffffffffffff1663c86415cb866040518263ffffffff1660e01b81526004016109b89190613048565b602060405180830381865afa1580156109d5573d6000803e3d6000fd5b505050506040513d601f19601f820116820180604052508101906109f991906137c6565b15610b9157610a2b3330868873ffffffffffffffffffffffffffffffffffffffff16611565909392919063ffffffff16565b610b8a8173ffffffffffffffffffffffffffffffffffffffff166306fdde036040518163ffffffff1660e01b8152600401600060405180830381865afa158015610a79573d6000803e3d6000fd5b505050506040513d6000823e3d601f19601f82011682018060405250810190610aa291906138c7565b8273ffffffffffffffffffffffffffffffffffffffff166395d89b416040518163ffffffff1660e01b8152600401600060405180830381865afa158015610aed573d6000803e3d6000fd5b505050506040513d6000823e3d601f19601f82011682018060405250810190610b1691906138c7565b8373ffffffffffffffffffffffffffffffffffffffff1663313ce5676040518163ffffffff1660e01b8152600401602060405180830381865afa158015610b61573d6000803e3d6000fd5b505050506040513d601f19601f82011682018060405250810190610b85919061393c565b6115ee565b9150610c70565b8073ffffffffffffffffffffffffffffffffffffffff16639dc29fac33866040518363ffffffff1660e01b8152600401610bcc929190613969565b600060405180830381600087803b158015610be657600080fd5b505af1158015610bfa573d6000803e3d6000fd5b505050508073ffffffffffffffffffffffffffffffffffffffff16634815fcb16040518163ffffffff1660e01b8152600401602060405180830381865afa158015610c49573d6000803e3d6000fd5b505050506040513d601f19601f82011682018060405250810190610c6d91906139a7565b91505b60008060c960009054906101000a900473ffffffffffffffffffffffffffffffffffffffff1673ffffffffffffffffffffffffffffffffffffffff1663f1537686886040518263ffffffff1660e01b8152600401610cce9190613048565b6040805180830381865afa158015610cea573d6000803e3d6000fd5b505050506040513d601f19601f82011682018060405250810190610d0e91906139e9565b91509150610d1c828261162a565b94505050509250929050565b6000610d7660036007811115610d4157610d40613a29565b5b6003868686604051602001610d599493929190613b09565b60405160208183030381529060405261106790919063ffffffff16565b90509392505050565b6000610d8a8461167b565b9050606560009054906101000a900473ffffffffffffffffffffffffffffffffffffffff1673ffffffffffffffffffffffffffffffffffffffff16639fa92f9d6040518163ffffffff1660e01b8152600401602060405180830381865afa158015610df9573d6000803e3d6000fd5b505050506040513d601f19601f82011682018060405250810190610e1d9190613b95565b73ffffffffffffffffffffffffffffffffffffffff1663fa31de018583610e4487876116e9565b6040518463ffffffff1660e01b8152600401610e6293929190613c26565b600060405180830381600087803b158015610e7c57600080fd5b505af1158015610e90573d6000803e3d6000fd5b5050505050505050565b610ea2611822565b73ffffffffffffffffffffffffffffffffffffffff16610ec06105a8565b73ffffffffffffffffffffffffffffffffffffffff1614610f16576040517f08c379a0000000000000000000000000000000000000000000000000000000008152600401610f0d90613cb0565b60405180910390fd5b565b6000808273ffffffffffffffffffffffffffffffffffffffff163b119050919050565b80606560006101000a81548173ffffffffffffffffffffffffffffffffffffffff021916908373ffffffffffffffffffffffffffffffffffffffff160217905550610f8461182a565b50565b6000606560009054906101000a900473ffffffffffffffffffffffffffffffffffffffff1673ffffffffffffffffffffffffffffffffffffffff16635190bc53836040518263ffffffff1660e01b8152600401610fe49190613048565b602060405180830381865afa158015611001573d6000803e3d6000fd5b505050506040513d601f19601f8201168201806040525081019061102591906137c6565b9050919050565b600081609760008563ffffffff1663ffffffff1681526020019081526020016000205414801561105f57506000801b8214155b905092915050565b6000808351905060006020850190506110888464ffffffffff168284611883565b9250505092915050565b60006110ab6110a0836118f1565b62ffffff1916611944565b9050919050565b60008160026110e28160078111156110cd576110cc613a29565b5b8362ffffff191661199690919063ffffffff16565b5061111560006024600160078111156110fe576110fd613a29565b5b8762ffffff1916611a44909392919063ffffffff16565b92505050919050565b600081600261114e81600781111561113957611138613a29565b5b8362ffffff191661199690919063ffffffff16565b50600060246111628662ffffff1916611af0565b6bffffffffffffffffffffffff1661117a9190613cff565b9050600061118786611b10565b60ff1690506111aa602483838962ffffff1916611a44909392919063ffffffff16565b945050505050919050565b60006111c2826003611b36565b9050919050565b60006111da8262ffffff1916611b9a565b90506111e98585858585611bee565b505050505050565b60006111fe826007611b36565b9050919050565b600060c960009054906101000a900473ffffffffffffffffffffffffffffffffffffffff1673ffffffffffffffffffffffffffffffffffffffff1663b869d89a6112548562ffffff1916611efc565b6112638662ffffff1916611f53565b6040518363ffffffff1660e01b8152600401611280929190613d33565b6020604051808303816000875af115801561129f573d6000803e3d6000fd5b505050506040513d601f19601f820116820180604052508101906112c39190613d71565b905060c960009054906101000a900473ffffffffffffffffffffffffffffffffffffffff1673ffffffffffffffffffffffffffffffffffffffff1663c86415cb826040518263ffffffff1660e01b81526004016113209190613048565b602060405180830381865afa15801561133d573d6000803e3d6000fd5b505050506040513d601f19601f8201168201806040525081019061136191906137c6565b156113a1576040517f08c379a000000000000000000000000000000000000000000000000000000000815260040161139890613dea565b60405180910390fd5b8073ffffffffffffffffffffffffffffffffffffffff16636bd080496113cc8462ffffff1916611faa565b6040518263ffffffff1660e01b81526004016113e89190613e0a565b600060405180830381600087803b15801561140257600080fd5b505af1158015611416573d6000803e3d6000fd5b50505050505050565b60008173ffffffffffffffffffffffffffffffffffffffff1660001b9050919050565b60006114946005600781111561145b5761145a613a29565b5b6005888888888860405160200161147796959493929190613e61565b60405160208183030381529060405261106790919063ffffffff16565b905095945050505050565b6000603360009054906101000a900473ffffffffffffffffffffffffffffffffffffffff16905081603360006101000a81548173ffffffffffffffffffffffffffffffffffffffff021916908373ffffffffffffffffffffffffffffffffffffffff1602179055508173ffffffffffffffffffffffffffffffffffffffff168173ffffffffffffffffffffffffffffffffffffffff167f8be0079c531659141344cd1fd0a4f28419497f9722a3daafe3b4186f6b6457e060405160405180910390a35050565b6115e8846323b872dd60e01b85858560405160240161158693929190613ecd565b604051602081830303815290604052907bffffffffffffffffffffffffffffffffffffffffffffffffffffffff19166020820180517bffffffffffffffffffffffffffffffffffffffffffffffffffffffff8381831617835250505050612001565b50505050565b60008351848451858560405160200161160b959493929190613f62565b6040516020818303038152906040528051906020012090509392505050565b60006116736001600781111561164357611642613a29565b5b8484604051602001611656929190613fef565b60405160208183030381529060405261106790919063ffffffff16565b905092915050565b6000609760008363ffffffff1663ffffffff1681526020019081526020016000205490506000801b81036116e4576040517f08c379a00000000000000000000000000000000000000000000000000000000081526004016116db90614067565b60405180910390fd5b919050565b606082600161171981600781111561170457611703613a29565b5b8362ffffff191661199690919063ffffffff16565b50611723846120c8565b611762576040517f08c379a0000000000000000000000000000000000000000000000000000000008152600401611759906140d3565b60405180910390fd5b6000600267ffffffffffffffff81111561177f5761177e6130ba565b5b6040519080825280602002602001820160405280156117ad5781602001602082028036833780820191505090505b50905085816000815181106117c5576117c46140f3565b5b602002602001019062ffffff1916908162ffffff19168152505084816001815181106117f4576117f36140f3565b5b602002602001019062ffffff1916908162ffffff191681525050611817816120fa565b935050505092915050565b600033905090565b600060019054906101000a900460ff16611879576040517f08c379a000000000000000000000000000000000000000000000000000000000815260040161187090614194565b60405180910390fd5b61188161215d565b565b60008061189983856121be90919063ffffffff16565b90506040518111156118aa57600090505b600081036118db577fffffffffffffffffffffffffffffffffffffffffffffffffffffffffff0000009150506118ea565b6118e68585856121d4565b9150505b9392505050565b60006118fc826121f5565b156119345761192d6002600781111561191857611917613a29565b5b8362ffffff191661225e90919063ffffffff16565b905061193f565b61193c612279565b90505b919050565b600061194f826122a1565b61198e576040517f08c379a000000000000000000000000000000000000000000000000000000000815260040161198590614200565b60405180910390fd5b819050919050565b60006119a283836122e3565b611a3b5760006119c06119b485612306565b64ffffffffff16612313565b91505060006119d58464ffffffffff16612313565b915050600082826040516020016119ed929190614304565b6040516020818303038152906040529050806040517f08c379a0000000000000000000000000000000000000000000000000000000008152600401611a32919061437f565b60405180910390fd5b82905092915050565b600080611a50866123e3565b6bffffffffffffffffffffffff169050611a6986612403565b611a8e85611a8088856121be90919063ffffffff16565b6121be90919063ffffffff16565b1115611abd577fffffffffffffffffffffffffffffffffffffffffffffffffffffffffff000000915050611ae8565b611ad085826121be90919063ffffffff16565b9050611ae48364ffffffffff168286611883565b9150505b949350505050565b6000806bffffffffffffffffffffffff9050808360181c16915050919050565b6000611b2f602460018462ffffff19166124369092919063ffffffff16565b9050919050565b6000816007811115611b4b57611b4a613a29565b5b60ff16611b578461246d565b60ff16148015611b925750816007811115611b7557611b74613a29565b5b611b7e84612493565b6007811115611b9057611b8f613a29565b5b145b905092915050565b6000816003611bca816007811115611bb557611bb4613a29565b5b8362ffffff191661199690919063ffffffff16565b50611be5600d8562ffffff19166124c090919063ffffffff16565b92505050919050565b600060c960009054906101000a900473ffffffffffffffffffffffffffffffffffffffff1673ffffffffffffffffffffffffffffffffffffffff1663b869d89a611c3d8662ffffff1916611efc565b611c4c8762ffffff1916611f53565b6040518363ffffffff1660e01b8152600401611c69929190613d33565b6020604051808303816000875af1158015611c88573d6000803e3d6000fd5b505050506040513d601f19601f82011682018060405250810190611cac9190613d71565b90506000611cbf8462ffffff19166124d6565b905060c960009054906101000a900473ffffffffffffffffffffffffffffffffffffffff1673ffffffffffffffffffffffffffffffffffffffff1663c86415cb836040518263ffffffff1660e01b8152600401611d1c9190613048565b602060405180830381865afa158015611d39573d6000803e3d6000fd5b505050506040513d601f19601f82011682018060405250810190611d5d91906137c6565b15611d9257611d8d83828473ffffffffffffffffffffffffffffffffffffffff166124fc9092919063ffffffff16565b611e79565b8173ffffffffffffffffffffffffffffffffffffffff166340c10f1984836040518363ffffffff1660e01b8152600401611dcd929190613969565b600060405180830381600087803b158015611de757600080fd5b505af1158015611dfb573d6000803e3d6000fd5b505050508173ffffffffffffffffffffffffffffffffffffffff1663cc2ab7c7611e2a8662ffffff1916612582565b6040518263ffffffff1660e01b8152600401611e46919061301e565b600060405180830381600087803b158015611e6057600080fd5b505af1158015611e74573d6000803e3d6000fd5b505050505b8273ffffffffffffffffffffffffffffffffffffffff168273ffffffffffffffffffffffffffffffffffffffff16611eb189896125a8565b67ffffffffffffffff167ffeb81b556809bdb56115720c39438faa83a27379815edc26111d0571d66b5bf284604051611eea9190613e0a565b60405180910390a45095945050505050565b6000816001611f2c816007811115611f1757611f16613a29565b5b8362ffffff191661199690919063ffffffff16565b50611f4a600060048662ffffff19166124369092919063ffffffff16565b92505050919050565b6000816001611f83816007811115611f6e57611f6d613a29565b5b8362ffffff191661199690919063ffffffff16565b50611fa1600460208662ffffff19166125cf9092919063ffffffff16565b92505050919050565b6000816007611fda816007811115611fc557611fc4613a29565b5b8362ffffff191661199690919063ffffffff16565b50611ff8602160208662ffffff19166124369092919063ffffffff16565b92505050919050565b6000612063826040518060400160405280602081526020017f5361666545524332303a206c6f772d6c6576656c2063616c6c206661696c65648152508573ffffffffffffffffffffffffffffffffffffffff166127239092919063ffffffff16565b90506000815111156120c3578080602001905181019061208391906137c6565b6120c2576040517f08c379a00000000000000000000000000000000000000000000000000000000081526004016120b990614413565b60405180910390fd5b5b505050565b60006120d3826111b5565b806120e357506120e28261273b565b5b806120f357506120f2826111f1565b5b9050919050565b606060006040519050600061211b846020846121169190614433565b61274f565b9050600061212882611af0565b6bffffffffffffffffffffffff1690506000612143836127f3565b905081845260208185010160405283945050505050919050565b600060019054906101000a900460ff166121ac576040517f08c379a00000000000000000000000000000000000000000000000000000000081526004016121a390614194565b60405180910390fd5b6121bc6121b7611822565b61149f565b565b600081836121cc9190614433565b905092915050565b600083811760601b905082811760601b905081811760181b90509392505050565b6000806122078362ffffff1916611af0565b6bffffffffffffffffffffffff169050606160246122259190614433565b81148061223f57506081602461223b9190614433565b8110155b806122565750602160246122539190614433565b81145b915050919050565b60008260281b60281c811790508160d81b8117905092915050565b60007fffffffffffffffffffffffffffffffffffffffffffffffffffffffffff000000905090565b600064ffffffffff6122b283612306565b64ffffffffff16036122c757600090506122de565b60006122d283612403565b90506040518111199150505b919050565b60008164ffffffffff166122f684612306565b64ffffffffff1614905092915050565b60008160d81c9050919050565b6000806000601f90505b600f8160ff1611156123795760006008826123389190614489565b60ff1685901c905061234981612811565b61ffff168417935060108260ff161461236457601084901b93505b5060018161237291906144c4565b905061231d565b506000600f90505b60ff8160ff1610156123dd57600060088261239c9190614489565b60ff1685901c90506123ad81612811565b61ffff168317925060008260ff16146123c857601083901b92505b506001816123d691906144c4565b9050612381565b50915091565b6000806bffffffffffffffffffffffff9050808360781c16915050919050565b600061240e82611af0565b612417836123e3565b6124219190614510565b6bffffffffffffffffffffffff169050919050565b6000600882602061244791906144c4565b6124519190614489565b60ff1661245f8585856125cf565b60001c901c90509392505050565b600061248c600060018462ffffff19166124369092919063ffffffff16565b9050919050565b60006124a48262ffffff1916612306565b60ff1660078111156124b9576124b8613a29565b5b9050919050565b60006124ce83836014612436565b905092915050565b60006124f5602160208462ffffff19166124369092919063ffffffff16565b9050919050565b61257d8363a9059cbb60e01b848460405160240161251b929190613969565b604051602081830303815290604052907bffffffffffffffffffffffffffffffffffffffffffffffffffffffff19166020820180517bffffffffffffffffffffffffffffffffffffffffffffffffffffffff8381831617835250505050612001565b505050565b60006125a1604160208462ffffff19166125cf9092919063ffffffff16565b9050919050565b60008163ffffffff1660208463ffffffff1667ffffffffffffffff16901b17905092915050565b6000808260ff16036125e6576000801b905061271c565b6125ef84611af0565b6bffffffffffffffffffffffff166126138360ff16856121be90919063ffffffff16565b111561269057612654612625856123e3565b6bffffffffffffffffffffffff1661263c86611af0565b6bffffffffffffffffffffffff16858560ff1661284a565b6040517f08c379a0000000000000000000000000000000000000000000000000000000008152600401612687919061437f565b60405180910390fd5b60208260ff1611156126d7576040517f08c379a00000000000000000000000000000000000000000000000000000000081526004016126ce906145c4565b60405180910390fd5b60006008836126e69190614489565b905060006126f3866123e3565b6bffffffffffffffffffffffff169050600061270e836128b8565b905080868301511693505050505b9392505050565b606061273284846000856128e7565b90509392505050565b6000612748826005611b36565b9050919050565b6000604051828111156127625760206060fd5b506000805b84518110156127dd576000858281518110612785576127846140f3565b5b602002602001015190506127a481848761279f9190614433565b6129fb565b506127ae81611af0565b6bffffffffffffffffffffffff16836127c79190614433565b92505080806127d5906145e4565b915050612767565b506127ea600084836121d4565b91505092915050565b6000602061280083612b06565b61280a919061462c565b9050919050565b600061282360048360ff16901c612b45565b60ff168117905060088161ffff16901b905061283e82612b45565b60ff1681179050919050565b6060600061285786612313565b915050600061286586612313565b915050600061287386612313565b915050600061288186612313565b9150508383838360405160200161289b949392919061484a565b604051602081830303815290604052945050505050949350505050565b60007f8000000000000000000000000000000000000000000000000000000000000000600183031d9050919050565b60608247101561292c576040517f08c379a000000000000000000000000000000000000000000000000000000000815260040161292390614941565b60405180910390fd5b61293585612ca5565b612974576040517f08c379a000000000000000000000000000000000000000000000000000000000815260040161296b906149ad565b60405180910390fd5b6000808673ffffffffffffffffffffffffffffffffffffffff16858760405161299d91906149cd565b60006040518083038185875af1925050503d80600081146129da576040519150601f19603f3d011682016040523d82523d6000602084013e6129df565b606091505b50915091506129ef828286612cc8565b92505050949350505050565b6000612a0683612d2f565b612a45576040517f08c379a0000000000000000000000000000000000000000000000000000000008152600401612a3c90614a56565b60405180910390fd5b612a4e836122a1565b612a8d576040517f08c379a0000000000000000000000000000000000000000000000000000000008152600401612a8490614ae8565b60405180910390fd5b6000612a9884611af0565b6bffffffffffffffffffffffff1690506000612ab3856123e3565b6bffffffffffffffffffffffff1690506000604051905084811115612ad85760206060fd5b8285848460045afa50612afb612aed87612306565b64ffffffffff1686856121d4565b935050505092915050565b60006020612b346020612b1885611af0565b6bffffffffffffffffffffffff166121be90919063ffffffff16565b612b3e9190614b37565b9050919050565b60008060f08317905060f08160ff1603612b63576030915050612ca0565b60f18160ff1603612b78576031915050612ca0565b60f28160ff1603612b8d576032915050612ca0565b60f38160ff1603612ba2576033915050612ca0565b60f48160ff1603612bb7576034915050612ca0565b60f58160ff1603612bcc576035915050612ca0565b60f68160ff1603612be1576036915050612ca0565b60f78160ff1603612bf6576037915050612ca0565b60f88160ff1603612c0b576038915050612ca0565b60f98160ff1603612c20576039915050612ca0565b60fa8160ff1603612c35576061915050612ca0565b60fb8160ff1603612c4a576062915050612ca0565b60fc8160ff1603612c5f576063915050612ca0565b60fd8160ff1603612c74576064915050612ca0565b60fe8160ff1603612c89576065915050612ca0565b60ff8160ff1603612c9e576066915050612ca0565b505b919050565b6000808273ffffffffffffffffffffffffffffffffffffffff163b119050919050565b60608315612cd857829050612d28565b600083511115612ceb5782518084602001fd5b816040517f08c379a0000000000000000000000000000000000000000000000000000000008152600401612d1f919061437f565b60405180910390fd5b9392505050565b6000612d3a82612d42565b159050919050565b60007fffffffffffffffffffffffffffffffffffffffffffffffffffffffffff00000062ffffff19168262ffffff1916149050919050565b6000604051905090565b600080fd5b600080fd5b600073ffffffffffffffffffffffffffffffffffffffff82169050919050565b6000612db982612d8e565b9050919050565b612dc981612dae565b8114612dd457600080fd5b50565b600081359050612de681612dc0565b92915050565b6000819050919050565b612dff81612dec565b8114612e0a57600080fd5b50565b600081359050612e1c81612df6565b92915050565b600063ffffffff82169050919050565b612e3b81612e22565b8114612e4657600080fd5b50565b600081359050612e5881612e32565b92915050565b6000819050919050565b612e7181612e5e565b8114612e7c57600080fd5b50565b600081359050612e8e81612e68565b92915050565b60008060008060808587031215612eae57612ead612d84565b5b6000612ebc87828801612dd7565b9450506020612ecd87828801612e0d565b9350506040612ede87828801612e49565b9250506060612eef87828801612e7f565b91505092959194509250565b6000819050919050565b6000612f20612f1b612f1684612d8e565b612efb565b612d8e565b9050919050565b6000612f3282612f05565b9050919050565b6000612f4482612f27565b9050919050565b612f5481612f39565b82525050565b6000602082019050612f6f6000830184612f4b565b92915050565b600060208284031215612f8b57612f8a612d84565b5b6000612f9984828501612dd7565b91505092915050565b60008060408385031215612fb957612fb8612d84565b5b6000612fc785828601612dd7565b9250506020612fd885828601612dd7565b9150509250929050565b600060208284031215612ff857612ff7612d84565b5b600061300684828501612e49565b91505092915050565b61301881612e5e565b82525050565b6000602082019050613033600083018461300f565b92915050565b61304281612dae565b82525050565b600060208201905061305d6000830184613039565b92915050565b600061306e82612f27565b9050919050565b61307e81613063565b82525050565b60006020820190506130996000830184613075565b92915050565b600080fd5b600080fd5b6000601f19601f8301169050919050565b7f4e487b7100000000000000000000000000000000000000000000000000000000600052604160045260246000fd5b6130f2826130a9565b810181811067ffffffffffffffff82111715613111576131106130ba565b5b80604052505050565b6000613124612d7a565b905061313082826130e9565b919050565b600067ffffffffffffffff8211156131505761314f6130ba565b5b613159826130a9565b9050602081019050919050565b82818337600083830152505050565b600061318861318384613135565b61311a565b9050828152602081018484840111156131a4576131a36130a4565b5b6131af848285613166565b509392505050565b600082601f8301126131cc576131cb61309f565b5b81356131dc848260208601613175565b91505092915050565b600080600080608085870312156131ff576131fe612d84565b5b600061320d87828801612e49565b945050602061321e87828801612e49565b935050604061322f87828801612e7f565b925050606085013567ffffffffffffffff8111156132505761324f612d89565b5b61325c878288016131b7565b91505092959194509250565b6000806040838503121561327f5761327e612d84565b5b600061328d85828601612e49565b925050602061329e85828601612e7f565b9150509250929050565b600080fd5b600080fd5b60008083601f8401126132c8576132c761309f565b5b8235905067ffffffffffffffff8111156132e5576132e46132a8565b5b602083019150836001820283011115613301576133006132ad565b5b9250929050565b60008060008060008060a0878903121561332557613324612d84565b5b600061333389828a01612dd7565b965050602061334489828a01612e0d565b955050604061335589828a01612e49565b945050606061336689828a01612e7f565b935050608087013567ffffffffffffffff81111561338757613386612d89565b5b61339389828a016132b2565b92509250509295509295509295565b600082825260208201905092915050565b7f2172656369700000000000000000000000000000000000000000000000000000600082015250565b60006133e96006836133a2565b91506133f4826133b3565b602082019050919050565b60006020820190508181036000830152613418816133dc565b9050919050565b61342881612dec565b82525050565b6000604082019050613443600083018561300f565b613450602083018461341f565b9392505050565b7f496e697469616c697a61626c653a20636f6e747261637420697320616c72656160008201527f647920696e697469616c697a6564000000000000000000000000000000000000602082015250565b60006134b3602e836133a2565b91506134be82613457565b604082019050919050565b600060208201905081810360008301526134e2816134a6565b9050919050565b6000819050919050565b600060ff82169050919050565b600061351b613516613511846134e9565b612efb565b6134f3565b9050919050565b61352b81613500565b82525050565b60006020820190506135466000830184613522565b92915050565b7f217265706c696361000000000000000000000000000000000000000000000000600082015250565b60006135826008836133a2565b915061358d8261354c565b602082019050919050565b600060208201905081810360008301526135b181613575565b9050919050565b7f2172656d6f746520726f75746572000000000000000000000000000000000000600082015250565b60006135ee600e836133a2565b91506135f9826135b8565b602082019050919050565b6000602082019050818103600083015261361d816135e1565b9050919050565b7f2176616c696420616374696f6e00000000000000000000000000000000000000600082015250565b600061365a600d836133a2565b915061366582613624565b602082019050919050565b600060208201905081810360008301526136898161364d565b9050919050565b7f4f776e61626c653a206e6577206f776e657220697320746865207a65726f206160008201527f6464726573730000000000000000000000000000000000000000000000000000602082015250565b60006136ec6026836133a2565b91506136f782613690565b604082019050919050565b6000602082019050818103600083015261371b816136df565b9050919050565b7f21616d6e74000000000000000000000000000000000000000000000000000000600082015250565b60006137586005836133a2565b915061376382613722565b602082019050919050565b600060208201905081810360008301526137878161374b565b9050919050565b60008115159050919050565b6137a38161378e565b81146137ae57600080fd5b50565b6000815190506137c08161379a565b92915050565b6000602082840312156137dc576137db612d84565b5b60006137ea848285016137b1565b91505092915050565b600067ffffffffffffffff82111561380e5761380d6130ba565b5b613817826130a9565b9050602081019050919050565b60005b83811015613842578082015181840152602081019050613827565b83811115613851576000848401525b50505050565b600061386a613865846137f3565b61311a565b905082815260208101848484011115613886576138856130a4565b5b613891848285613824565b509392505050565b600082601f8301126138ae576138ad61309f565b5b81516138be848260208601613857565b91505092915050565b6000602082840312156138dd576138dc612d84565b5b600082015167ffffffffffffffff8111156138fb576138fa612d89565b5b61390784828501613899565b91505092915050565b613919816134f3565b811461392457600080fd5b50565b60008151905061393681613910565b92915050565b60006020828403121561395257613951612d84565b5b600061396084828501613927565b91505092915050565b600060408201905061397e6000830185613039565b61398b602083018461341f565b9392505050565b6000815190506139a181612e68565b92915050565b6000602082840312156139bd576139bc612d84565b5b60006139cb84828501613992565b91505092915050565b6000815190506139e381612e32565b92915050565b60008060408385031215613a00576139ff612d84565b5b6000613a0e858286016139d4565b9250506020613a1f85828601613992565b9150509250929050565b7f4e487b7100000000000000000000000000000000000000000000000000000000600052602160045260246000fd5b60088110613a6957613a68613a29565b5b50565b6000819050613a7a82613a58565b919050565b6000613a8a82613a6c565b9050919050565b60008160f81b9050919050565b6000613aa982613a91565b9050919050565b613ac1613abc82613a7f565b613a9e565b82525050565b6000819050919050565b613ae2613add82612e5e565b613ac7565b82525050565b6000819050919050565b613b03613afe82612dec565b613ae8565b82525050565b6000613b158287613ab0565b600182019150613b258286613ad1565b602082019150613b358285613af2565b602082019150613b458284613ad1565b60208201915081905095945050505050565b6000613b6282612dae565b9050919050565b613b7281613b57565b8114613b7d57600080fd5b50565b600081519050613b8f81613b69565b92915050565b600060208284031215613bab57613baa612d84565b5b6000613bb984828501613b80565b91505092915050565b613bcb81612e22565b82525050565b600081519050919050565b600082825260208201905092915050565b6000613bf882613bd1565b613c028185613bdc565b9350613c12818560208601613824565b613c1b816130a9565b840191505092915050565b6000606082019050613c3b6000830186613bc2565b613c48602083018561300f565b8181036040830152613c5a8184613bed565b9050949350505050565b7f4f776e61626c653a2063616c6c6572206973206e6f7420746865206f776e6572600082015250565b6000613c9a6020836133a2565b9150613ca582613c64565b602082019050919050565b60006020820190508181036000830152613cc981613c8d565b9050919050565b7f4e487b7100000000000000000000000000000000000000000000000000000000600052601160045260246000fd5b6000613d0a82612dec565b9150613d1583612dec565b925082821015613d2857613d27613cd0565b5b828203905092915050565b6000604082019050613d486000830185613bc2565b613d55602083018461300f565b9392505050565b600081519050613d6b81612dc0565b92915050565b600060208284031215613d8757613d86612d84565b5b6000613d9584828501613d5c565b91505092915050565b7f4c4f43414c5f4f524947494e0000000000000000000000000000000000000000600082015250565b6000613dd4600c836133a2565b9150613ddf82613d9e565b602082019050919050565b60006020820190508181036000830152613e0381613dc7565b9050919050565b6000602082019050613e1f600083018461341f565b92915050565b600081905092915050565b6000613e3b82613bd1565b613e458185613e25565b9350613e55818560208601613824565b80840191505092915050565b6000613e6d8289613ab0565b600182019150613e7d8288613ad1565b602082019150613e8d8287613af2565b602082019150613e9d8286613ad1565b602082019150613ead8285613ad1565b602082019150613ebd8284613e30565b9150819050979650505050505050565b6000606082019050613ee26000830186613039565b613eef6020830185613039565b613efc604083018461341f565b949350505050565b600081519050919050565b600081905092915050565b6000613f2582613f04565b613f2f8185613f0f565b9350613f3f818560208601613824565b80840191505092915050565b613f5c613f57826134f3565b613a9e565b82525050565b6000613f6e8288613af2565b602082019150613f7e8287613f1a565b9150613f8a8286613af2565b602082019150613f9a8285613f1a565b9150613fa68284613f4b565b6001820191508190509695505050505050565b60008160e01b9050919050565b6000613fd182613fb9565b9050919050565b613fe9613fe482612e22565b613fc6565b82525050565b6000613ffb8285613fd8565b60048201915061400b8284613ad1565b6020820191508190509392505050565b7f2172656d6f746500000000000000000000000000000000000000000000000000600082015250565b60006140516007836133a2565b915061405c8261401b565b602082019050919050565b6000602082019050818103600083015261408081614044565b9050919050565b7f21616374696f6e00000000000000000000000000000000000000000000000000600082015250565b60006140bd6007836133a2565b91506140c882614087565b602082019050919050565b600060208201905081810360008301526140ec816140b0565b9050919050565b7f4e487b7100000000000000000000000000000000000000000000000000000000600052603260045260246000fd5b7f496e697469616c697a61626c653a20636f6e7472616374206973206e6f74206960008201527f6e697469616c697a696e67000000000000000000000000000000000000000000602082015250565b600061417e602b836133a2565b915061418982614122565b604082019050919050565b600060208201905081810360008301526141ad81614171565b9050919050565b7f56616c696469747920617373657274696f6e206661696c656400000000000000600082015250565b60006141ea6019836133a2565b91506141f5826141b4565b602082019050919050565b60006020820190508181036000830152614219816141dd565b9050919050565b7f5479706520617373657274696f6e206661696c65642e20476f74203078000000600082015250565b6000614256601d83613f0f565b915061426182614220565b601d82019050919050565b600069ffffffffffffffffffff82169050919050565b60008160b01b9050919050565b600061429a82614282565b9050919050565b6142b26142ad8261426c565b61428f565b82525050565b7f2e20457870656374656420307800000000000000000000000000000000000000600082015250565b60006142ee600d83613f0f565b91506142f9826142b8565b600d82019050919050565b600061430f82614249565b915061431b82856142a1565b600a8201915061432a826142e1565b915061433682846142a1565b600a820191508190509392505050565b600061435182613f04565b61435b81856133a2565b935061436b818560208601613824565b614374816130a9565b840191505092915050565b600060208201905081810360008301526143998184614346565b905092915050565b7f5361666545524332303a204552433230206f7065726174696f6e20646964206e60008201527f6f74207375636365656400000000000000000000000000000000000000000000602082015250565b60006143fd602a836133a2565b9150614408826143a1565b604082019050919050565b6000602082019050818103600083015261442c816143f0565b9050919050565b600061443e82612dec565b915061444983612dec565b9250827fffffffffffffffffffffffffffffffffffffffffffffffffffffffffffffffff0382111561447e5761447d613cd0565b5b828201905092915050565b6000614494826134f3565b915061449f836134f3565b92508160ff04831182151516156144b9576144b8613cd0565b5b828202905092915050565b60006144cf826134f3565b91506144da836134f3565b9250828210156144ed576144ec613cd0565b5b828203905092915050565b60006bffffffffffffffffffffffff82169050919050565b600061451b826144f8565b9150614526836144f8565b9250826bffffffffffffffffffffffff0382111561454757614546613cd0565b5b828201905092915050565b7f54797065644d656d566965772f696e646578202d20417474656d70746564207460008201527f6f20696e646578206d6f7265207468616e203332206279746573000000000000602082015250565b60006145ae603a836133a2565b91506145b982614552565b604082019050919050565b600060208201905081810360008301526145dd816145a1565b9050919050565b60006145ef82612dec565b91507fffffffffffffffffffffffffffffffffffffffffffffffffffffffffffffffff820361462157614620613cd0565b5b600182019050919050565b600061463782612dec565b915061464283612dec565b9250817fffffffffffffffffffffffffffffffffffffffffffffffffffffffffffffffff048311821515161561467b5761467a613cd0565b5b828202905092915050565b7f54797065644d656d566965772f696e646578202d204f76657272616e2074686560008201527f20766965772e20536c6963652069732061742030780000000000000000000000602082015250565b60006146e2603583613f0f565b91506146ed82614686565b603582019050919050565b600065ffffffffffff82169050919050565b60008160d01b9050919050565b60006147228261470a565b9050919050565b61473a614735826146f8565b614717565b82525050565b7f2077697468206c656e6774682030780000000000000000000000000000000000600082015250565b6000614776600f83613f0f565b915061478182614740565b600f82019050919050565b7f2e20417474656d7074656420746f20696e646578206174206f6666736574203060008201527f7800000000000000000000000000000000000000000000000000000000000000602082015250565b60006147e8602183613f0f565b91506147f38261478c565b602182019050919050565b7f2e00000000000000000000000000000000000000000000000000000000000000600082015250565b6000614834600183613f0f565b915061483f826147fe565b600182019050919050565b6000614855826146d5565b91506148618287614729565b60068201915061487082614769565b915061487c8286614729565b60068201915061488b826147db565b91506148978285614729565b6006820191506148a682614769565b91506148b28284614729565b6006820191506148c182614827565b915081905095945050505050565b7f416464726573733a20696e73756666696369656e742062616c616e636520666f60008201527f722063616c6c0000000000000000000000000000000000000000000000000000602082015250565b600061492b6026836133a2565b9150614936826148cf565b604082019050919050565b6000602082019050818103600083015261495a8161491e565b9050919050565b7f416464726573733a2063616c6c20746f206e6f6e2d636f6e7472616374000000600082015250565b6000614997601d836133a2565b91506149a282614961565b602082019050919050565b600060208201905081810360008301526149c68161498a565b9050919050565b60006149d98284613e30565b915081905092915050565b7f54797065644d656d566965772f636f7079546f202d204e756c6c20706f696e7460008201527f6572206465726566000000000000000000000000000000000000000000000000602082015250565b6000614a406028836133a2565b9150614a4b826149e4565b604082019050919050565b60006020820190508181036000830152614a6f81614a33565b9050919050565b7f54797065644d656d566965772f636f7079546f202d20496e76616c696420706f60008201527f696e746572206465726566000000000000000000000000000000000000000000602082015250565b6000614ad2602b836133a2565b9150614add82614a76565b604082019050919050565b60006020820190508181036000830152614b0181614ac5565b9050919050565b7f4e487b7100000000000000000000000000000000000000000000000000000000600052601260045260246000fd5b6000614b4282612dec565b9150614b4d83612dec565b925082614b5d57614b5c614b08565b5b82820490509291505056fea26469706673582212208b71a6f21ead7e39daf8c92570bd93c47071a5428bee4985bd46a2a3608f0d4264736f6c634300080f0033",
  "devdoc": {
    "events": {
      "Receive(uint64,address,address,uint256)": {
        "params": {
          "amount": "The amount of tokens being received",
          "originAndNonce": "Domain where the transfer originated and the unique identifier for the message from origin to destination, combined in a single field ((origin << 32) & nonce)",
          "recipient": "The address receiving the tokens; the original recipient of the transfer",
          "token": "The address of the local token contract being received"
        }
      },
      "Send(address,address,uint32,bytes32,uint256)": {
        "params": {
          "amount": "the amount of tokens sent",
          "from": "the address sending tokens",
          "toDomain": "the domain of the chain the tokens are being sent to",
          "toId": "the bytes32 address of the recipient of the tokens",
          "token": "the address of the token contract"
        }
      }
    },
    "kind": "dev",
    "methods": {
      "enrollRemoteRouter(uint32,bytes32)": {
        "params": {
          "_domain": "The domain of the remote xApp Router",
          "_router": "The address of the remote xApp Router"
        }
      },
      "handle(uint32,uint32,bytes32,bytes)": {
        "params": {
          "_message": "The message",
          "_nonce": "The unique identifier for the message from origin to destination",
          "_origin": "The origin domain",
          "_sender": "The sender address"
        }
      },
      "owner()": {
        "details": "Returns the address of the current owner."
      },
      "renounceOwnership()": {
        "details": "should be impossible to renounce ownership;      we override OpenZeppelin OwnableUpgradeable's      implementation of renounceOwnership to make it a no-op"
      },
      "send(address,uint256,uint32,bytes32)": {
        "params": {
          "_amount": "The token amount",
          "_destination": "The destination domain",
          "_recipient": "The recipient address",
          "_token": "The token address"
        }
      },
      "sendToHook(address,uint256,uint32,bytes32,bytes)": {
        "params": {
          "_amount": "The token amount",
          "_destination": "The destination domain",
          "_extraData": "Extra data that will be passed to the hook for        execution",
          "_remoteHook": "The hook contract on the remote chain",
          "_token": "The token address"
        }
      },
      "setXAppConnectionManager(address)": {
        "params": {
          "_xAppConnectionManager": "The address of the xAppConnectionManager contract"
        }
      },
      "transferOwnership(address)": {
        "details": "Transfers ownership of the contract to a new account (`newOwner`). Can only be called by the current owner."
      }
    },
    "version": 1
  },
  "userdoc": {
    "events": {
      "Receive(uint64,address,address,uint256)": {
        "notice": "emitted when tokens are dispensed to an account on this domain emitted when the transfer ultimately settles"
      },
      "Send(address,address,uint32,bytes32,uint256)": {
        "notice": "emitted when tokens are sent from this domain to another domain"
      }
    },
    "kind": "user",
    "methods": {
      "enrollRemoteRouter(uint32,bytes32)": {
        "notice": "Register the address of a Router contract for the same xApp on a remote chain"
      },
      "handle(uint32,uint32,bytes32,bytes)": {
        "notice": "Handles an incoming message"
      },
      "send(address,uint256,uint32,bytes32)": {
        "notice": "Send tokens to a recipient on a remote chain"
      },
      "sendToHook(address,uint256,uint32,bytes32,bytes)": {
        "notice": "Send tokens to a hook on the remote chain"
      },
      "setXAppConnectionManager(address)": {
        "notice": "Modify the contract the xApp uses to validate Replica contracts"
      }
    },
    "version": 1
  },
  "storageLayout": {
    "storage": [
      {
        "astId": 138,
        "contract": "contracts/ABridgeRouter.sol:ABridgeRouter",
        "label": "_initialized",
        "offset": 0,
        "slot": "0",
        "type": "t_uint8"
      },
      {
        "astId": 141,
        "contract": "contracts/ABridgeRouter.sol:ABridgeRouter",
        "label": "_initializing",
        "offset": 1,
        "slot": "0",
        "type": "t_bool"
      },
      {
        "astId": 566,
        "contract": "contracts/ABridgeRouter.sol:ABridgeRouter",
        "label": "__gap",
        "offset": 0,
        "slot": "1",
        "type": "t_array(t_uint256)50_storage"
      },
      {
        "astId": 10,
        "contract": "contracts/ABridgeRouter.sol:ABridgeRouter",
        "label": "_owner",
        "offset": 0,
        "slot": "51",
        "type": "t_address"
      },
      {
        "astId": 130,
        "contract": "contracts/ABridgeRouter.sol:ABridgeRouter",
        "label": "__gap",
        "offset": 0,
        "slot": "52",
        "type": "t_array(t_uint256)49_storage"
      },
      {
        "astId": 11424,
        "contract": "contracts/ABridgeRouter.sol:ABridgeRouter",
        "label": "xAppConnectionManager",
        "offset": 0,
        "slot": "101",
        "type": "t_contract(XAppConnectionManager)7982"
      },
      {
        "astId": 11428,
        "contract": "contracts/ABridgeRouter.sol:ABridgeRouter",
        "label": "__GAP",
        "offset": 0,
        "slot": "102",
        "type": "t_array(t_uint256)49_storage"
      },
      {
        "astId": 11311,
        "contract": "contracts/ABridgeRouter.sol:ABridgeRouter",
        "label": "remotes",
        "offset": 0,
        "slot": "151",
        "type": "t_mapping(t_uint32,t_bytes32)"
      },
      {
        "astId": 11315,
        "contract": "contracts/ABridgeRouter.sol:ABridgeRouter",
        "label": "__GAP",
        "offset": 0,
        "slot": "152",
        "type": "t_array(t_uint256)49_storage"
      },
      {
        "astId": 3520,
        "contract": "contracts/ABridgeRouter.sol:ABridgeRouter",
        "label": "tokenRegistry",
        "offset": 0,
        "slot": "201",
        "type": "t_contract(TokenRegistry)6069"
      },
      {
        "astId": 3524,
        "contract": "contracts/ABridgeRouter.sol:ABridgeRouter",
        "label": "canonicalSharesAtDestination",
        "offset": 0,
        "slot": "202",
        "type": "t_mapping(t_bytes32,t_uint256)"
      }
    ],
    "types": {
      "t_address": {
        "encoding": "inplace",
        "label": "address",
        "numberOfBytes": "20"
      },
      "t_array(t_uint256)49_storage": {
        "base": "t_uint256",
        "encoding": "inplace",
        "label": "uint256[49]",
        "numberOfBytes": "1568"
      },
      "t_array(t_uint256)50_storage": {
        "base": "t_uint256",
        "encoding": "inplace",
        "label": "uint256[50]",
        "numberOfBytes": "1600"
      },
      "t_bool": {
        "encoding": "inplace",
        "label": "bool",
        "numberOfBytes": "1"
      },
      "t_bytes32": {
        "encoding": "inplace",
        "label": "bytes32",
        "numberOfBytes": "32"
      },
      "t_contract(TokenRegistry)6069": {
        "encoding": "inplace",
        "label": "contract TokenRegistry",
        "numberOfBytes": "20"
      },
      "t_contract(XAppConnectionManager)7982": {
        "encoding": "inplace",
        "label": "contract XAppConnectionManager",
        "numberOfBytes": "20"
      },
      "t_mapping(t_bytes32,t_uint256)": {
        "encoding": "mapping",
        "key": "t_bytes32",
        "label": "mapping(bytes32 => uint256)",
        "numberOfBytes": "32",
        "value": "t_uint256"
      },
      "t_mapping(t_uint32,t_bytes32)": {
        "encoding": "mapping",
        "key": "t_uint32",
        "label": "mapping(uint32 => bytes32)",
        "numberOfBytes": "32",
        "value": "t_bytes32"
      },
      "t_uint256": {
        "encoding": "inplace",
        "label": "uint256",
        "numberOfBytes": "32"
      },
      "t_uint32": {
        "encoding": "inplace",
        "label": "uint32",
        "numberOfBytes": "4"
      },
      "t_uint8": {
        "encoding": "inplace",
        "label": "uint8",
        "numberOfBytes": "1"
      }
    }
  }
}