{
  "address": "0x5943371e02A7c05Eed1323159aE31e10356FC9EE",
  "abi": [
    {
      "anonymous": false,
      "inputs": [
        {
          "indexed": true,
          "internalType": "address",
          "name": "owner",
          "type": "address"
        },
        {
          "indexed": true,
          "internalType": "address",
          "name": "spender",
          "type": "address"
        },
        {
          "indexed": false,
          "internalType": "uint256",
          "name": "amount",
          "type": "uint256"
        }
      ],
      "name": "Approval",
      "type": "event"
    },
    {
      "anonymous": false,
      "inputs": [
        {
          "indexed": false,
          "internalType": "uint8",
          "name": "version",
          "type": "uint8"
        }
      ],
      "name": "Initialized",
      "type": "event"
    },
    {
      "anonymous": false,
      "inputs": [
        {
          "indexed": true,
          "internalType": "address",
          "name": "previousOwner",
          "type": "address"
        },
        {
          "indexed": true,
          "internalType": "address",
          "name": "newOwner",
          "type": "address"
        }
      ],
      "name": "OwnershipTransferred",
      "type": "event"
    },
    {
      "anonymous": false,
      "inputs": [
        {
          "indexed": true,
          "internalType": "address",
          "name": "from",
          "type": "address"
        },
        {
          "indexed": true,
          "internalType": "address",
          "name": "to",
          "type": "address"
        },
        {
          "indexed": false,
          "internalType": "uint256",
          "name": "amount",
          "type": "uint256"
        }
      ],
      "name": "Transfer",
      "type": "event"
    },
    {
      "anonymous": false,
      "inputs": [
        {
          "indexed": true,
          "internalType": "string",
          "name": "name",
          "type": "string"
        },
        {
          "indexed": true,
          "internalType": "string",
          "name": "symbol",
          "type": "string"
        },
        {
          "indexed": true,
          "internalType": "uint8",
          "name": "decimals",
          "type": "uint8"
        }
      ],
      "name": "UpdateDetails",
      "type": "event"
    },
    {
      "inputs": [],
      "name": "_PERMIT_TYPEHASH",
      "outputs": [
        {
          "internalType": "bytes32",
          "name": "",
          "type": "bytes32"
        }
      ],
      "stateMutability": "view",
      "type": "function"
    },
    {
      "inputs": [
        {
          "internalType": "address",
          "name": "",
          "type": "address"
        },
        {
          "internalType": "address",
          "name": "",
          "type": "address"
        }
      ],
      "name": "allowance",
      "outputs": [
        {
          "internalType": "uint256",
          "name": "",
          "type": "uint256"
        }
      ],
      "stateMutability": "view",
      "type": "function"
    },
    {
      "inputs": [
        {
          "internalType": "address",
          "name": "_spender",
          "type": "address"
        },
        {
          "internalType": "uint256",
          "name": "_amount",
          "type": "uint256"
        }
      ],
      "name": "approve",
      "outputs": [
        {
          "internalType": "bool",
          "name": "",
          "type": "bool"
        }
      ],
      "stateMutability": "nonpayable",
      "type": "function"
    },
    {
      "inputs": [
        {
          "internalType": "address",
          "name": "_account",
          "type": "address"
        }
      ],
      "name": "balanceOf",
      "outputs": [
        {
          "internalType": "uint256",
          "name": "",
          "type": "uint256"
        }
      ],
      "stateMutability": "view",
      "type": "function"
    },
    {
      "inputs": [
        {
          "internalType": "address",
          "name": "_from",
          "type": "address"
        },
        {
          "internalType": "uint256",
          "name": "_amnt",
          "type": "uint256"
        }
      ],
      "name": "burn",
      "outputs": [],
      "stateMutability": "nonpayable",
      "type": "function"
    },
    {
      "inputs": [],
      "name": "decimals",
      "outputs": [
        {
          "internalType": "uint8",
          "name": "",
          "type": "uint8"
        }
      ],
      "stateMutability": "view",
      "type": "function"
    },
    {
      "inputs": [
        {
          "internalType": "address",
          "name": "_spender",
          "type": "address"
        },
        {
          "internalType": "uint256",
          "name": "_subtractedValue",
          "type": "uint256"
        }
      ],
      "name": "decreaseAllowance",
      "outputs": [
        {
          "internalType": "bool",
          "name": "",
          "type": "bool"
        }
      ],
      "stateMutability": "nonpayable",
      "type": "function"
    },
    {
      "inputs": [],
      "name": "detailsHash",
      "outputs": [
        {
          "internalType": "bytes32",
          "name": "",
          "type": "bytes32"
        }
      ],
      "stateMutability": "view",
      "type": "function"
    },
    {
      "inputs": [],
      "name": "domainSeparator",
      "outputs": [
        {
          "internalType": "bytes32",
          "name": "",
          "type": "bytes32"
        }
      ],
      "stateMutability": "view",
      "type": "function"
    },
    {
      "inputs": [
        {
          "internalType": "address",
          "name": "_spender",
          "type": "address"
        },
        {
          "internalType": "uint256",
          "name": "_addedValue",
          "type": "uint256"
        }
      ],
      "name": "increaseAllowance",
      "outputs": [
        {
          "internalType": "bool",
          "name": "",
          "type": "bool"
        }
      ],
      "stateMutability": "nonpayable",
      "type": "function"
    },
    {
      "inputs": [],
      "name": "initialize",
      "outputs": [],
      "stateMutability": "nonpayable",
      "type": "function"
    },
    {
      "inputs": [
        {
          "internalType": "address",
          "name": "_to",
          "type": "address"
        },
        {
          "internalType": "uint256",
          "name": "_amnt",
          "type": "uint256"
        }
      ],
      "name": "mint",
      "outputs": [],
      "stateMutability": "nonpayable",
      "type": "function"
    },
    {
      "inputs": [],
      "name": "name",
      "outputs": [
        {
          "internalType": "string",
          "name": "",
          "type": "string"
        }
      ],
      "stateMutability": "view",
      "type": "function"
    },
    {
      "inputs": [
        {
          "internalType": "address",
          "name": "",
          "type": "address"
        }
      ],
      "name": "nonces",
      "outputs": [
        {
          "internalType": "uint256",
          "name": "",
          "type": "uint256"
        }
      ],
      "stateMutability": "view",
      "type": "function"
    },
    {
      "inputs": [],
      "name": "owner",
      "outputs": [
        {
          "internalType": "address",
          "name": "",
          "type": "address"
        }
      ],
      "stateMutability": "view",
      "type": "function"
    },
    {
      "inputs": [
        {
          "internalType": "address",
          "name": "_owner",
          "type": "address"
        },
        {
          "internalType": "address",
          "name": "_spender",
          "type": "address"
        },
        {
          "internalType": "uint256",
          "name": "_value",
          "type": "uint256"
        },
        {
          "internalType": "uint256",
          "name": "_deadline",
          "type": "uint256"
        },
        {
          "internalType": "uint8",
          "name": "_v",
          "type": "uint8"
        },
        {
          "internalType": "bytes32",
          "name": "_r",
          "type": "bytes32"
        },
        {
          "internalType": "bytes32",
          "name": "_s",
          "type": "bytes32"
        }
      ],
      "name": "permit",
      "outputs": [],
      "stateMutability": "nonpayable",
      "type": "function"
    },
    {
      "inputs": [],
      "name": "renounceOwnership",
      "outputs": [],
      "stateMutability": "nonpayable",
      "type": "function"
    },
    {
      "inputs": [
        {
          "internalType": "string",
          "name": "_newName",
          "type": "string"
        },
        {
          "internalType": "string",
          "name": "_newSymbol",
          "type": "string"
        },
        {
          "internalType": "uint8",
          "name": "_newDecimals",
          "type": "uint8"
        }
      ],
      "name": "setDetails",
      "outputs": [],
      "stateMutability": "nonpayable",
      "type": "function"
    },
    {
      "inputs": [
        {
          "internalType": "bytes32",
          "name": "_detailsHash",
          "type": "bytes32"
        }
      ],
      "name": "setDetailsHash",
      "outputs": [],
      "stateMutability": "nonpayable",
      "type": "function"
    },
    {
      "inputs": [
        {
          "internalType": "address",
          "name": "",
          "type": "address"
        }
      ],
      "name": "shares",
      "outputs": [
        {
          "internalType": "uint256",
          "name": "",
          "type": "uint256"
        }
      ],
      "stateMutability": "view",
      "type": "function"
    },
    {
      "inputs": [],
      "name": "symbol",
      "outputs": [
        {
          "internalType": "string",
          "name": "",
          "type": "string"
        }
      ],
      "stateMutability": "view",
      "type": "function"
    },
    {
      "inputs": [],
      "name": "totalShares",
      "outputs": [
        {
          "internalType": "uint256",
          "name": "",
          "type": "uint256"
        }
      ],
      "stateMutability": "view",
      "type": "function"
    },
    {
      "inputs": [],
      "name": "totalSupply",
      "outputs": [
        {
          "internalType": "uint256",
          "name": "",
          "type": "uint256"
        }
      ],
      "stateMutability": "view",
      "type": "function"
    },
    {
      "inputs": [
        {
          "internalType": "address",
          "name": "_to",
          "type": "address"
        },
        {
          "internalType": "uint256",
          "name": "_amount",
          "type": "uint256"
        }
      ],
      "name": "transfer",
      "outputs": [
        {
          "internalType": "bool",
          "name": "success",
          "type": "bool"
        }
      ],
      "stateMutability": "nonpayable",
      "type": "function"
    },
    {
      "inputs": [
        {
          "internalType": "address",
          "name": "_from",
          "type": "address"
        },
        {
          "internalType": "address",
          "name": "_to",
          "type": "address"
        },
        {
          "internalType": "uint256",
          "name": "_amount",
          "type": "uint256"
        }
      ],
      "name": "transferFrom",
      "outputs": [
        {
          "internalType": "bool",
          "name": "success",
          "type": "bool"
        }
      ],
      "stateMutability": "nonpayable",
      "type": "function"
    },
    {
      "inputs": [
        {
          "internalType": "address",
          "name": "_newOwner",
          "type": "address"
        }
      ],
      "name": "transferOwnership",
      "outputs": [],
      "stateMutability": "nonpayable",
      "type": "function"
    },
    {
      "inputs": [
        {
          "internalType": "uint256",
          "name": "_newSupply",
          "type": "uint256"
        }
      ],
      "name": "updateSupply",
      "outputs": [],
      "stateMutability": "nonpayable",
      "type": "function"
    }
  ],
  "transactionHash": "0xdd2e795eb8dbb37267bb162aa1973121931738c514116ffe2b174466c5028a6b",
  "args": [],
  "numDeployments": 1,
  "solcInputHash": "d216661bc5af561d28ec5fd946b59ebb",
  "bytecode": "0x60e06040527f6e71edae12b1b97f4d1f60370fef10105fa2faae0126114a169c64845d6126c96080908152506040518060400160405280600181526020017f31000000000000000000000000000000000000000000000000000000000000008152508051906020012060a09081525061190161ffff1660c09061ffff1681525034801561008b57600080fd5b5060805160a05160c05161295c6100c26000396000610ef9015260006110f1015260008181610c150152610ea4015261295c6000f3fe608060405234801561001057600080fd5b50600436106101a95760003560e01c80637ecebe00116100f9578063a9059cbb11610097578063d505accf11610071578063d505accf146104be578063dd62ed3e146104da578063f2fde38b1461050a578063f698da2514610526576101a9565b8063a9059cbb14610442578063cc2ab7c714610472578063ce7c2ac21461048e576101a9565b806395d89b41116100d357806395d89b41146103ba578063982aaf6b146103d85780639dc29fac146103f6578063a457c2d714610412576101a9565b80637ecebe00146103625780638129fc1c146103925780638da5cb5b1461039c576101a9565b80633a98ef3911610166578063654935f411610140578063654935f4146102f05780636bd080491461030c57806370a0823114610328578063715018a614610358576101a9565b80633a98ef391461029857806340c10f19146102b65780634815fcb1146102d2576101a9565b806306fdde03146101ae578063095ea7b3146101cc57806318160ddd146101fc57806323b872dd1461021a578063313ce5671461024a5780633950935114610268575b600080fd5b6101b6610544565b6040516101c391906117e6565b60405180910390f35b6101e660048036038101906101e191906118a6565b6105d9565b6040516101f39190611901565b60405180910390f35b6102046105ee565b604051610211919061192b565b60405180910390f35b610234600480360381019061022f9190611946565b6105f4565b6040516102419190611901565b60405180910390f35b61025261070a565b60405161025f91906119b5565b60405180910390f35b610282600480360381019061027d91906118a6565b610724565b60405161028f9190611901565b60405180910390f35b6102a06107c3565b6040516102ad919061192b565b60405180910390f35b6102d060048036038101906102cb91906118a6565b6107c9565b005b6102da6107e7565b6040516102e791906119e9565b60405180910390f35b61030a60048036038101906103059190611a95565b6107ed565b005b61032660048036038101906103219190611b2a565b610999565b005b610342600480360381019061033d9190611b57565b6109a3565b60405161034f919061192b565b60405180910390f35b6103606109f4565b005b61037c60048036038101906103779190611b57565b6109fe565b604051610389919061192b565b60405180910390f35b61039a610a16565b005b6103a4610b54565b6040516103b19190611b93565b60405180910390f35b6103c2610b7e565b6040516103cf91906117e6565b60405180910390f35b6103e0610c13565b6040516103ed91906119e9565b60405180910390f35b610410600480360381019061040b91906118a6565b610c37565b005b61042c600480360381019061042791906118a6565b610c55565b6040516104399190611901565b60405180910390f35b61045c600480360381019061045791906118a6565b610cf4565b6040516104699190611901565b60405180910390f35b61048c60048036038101906104879190611bda565b610d76565b005b6104a860048036038101906104a39190611b57565b610d92565b6040516104b5919061192b565b60405180910390f35b6104d860048036038101906104d39190611c07565b610daa565b005b6104f460048036038101906104ef9190611ca9565b611075565b604051610501919061192b565b60405180910390f35b610524600480360381019061051f9190611b57565b61109a565b005b61052e6110ae565b60405161053b91906119e9565b60405180910390f35b60606065600101805461055690611d18565b80601f016020809104026020016040519081016040528092919081815260200182805461058290611d18565b80156105cf5780601f106105a4576101008083540402835291602001916105cf565b820191906000526020600020905b8154815290600101906020018083116105b257829003601f168201915b5050505050905090565b60006105e6338484611142565b905092915050565b60685481565b600081606b60008673ffffffffffffffffffffffffffffffffffffffff1673ffffffffffffffffffffffffffffffffffffffff16815260200190815260200160002060003373ffffffffffffffffffffffffffffffffffffffff1673ffffffffffffffffffffffffffffffffffffffff16815260200190815260200160002060008282546106829190611d78565b9250508190555061069c848461069785611235565b61128a565b90508273ffffffffffffffffffffffffffffffffffffffff168473ffffffffffffffffffffffffffffffffffffffff167fddf252ad1be2c89b69c2b068fc378daa952ba7f163c4a11628f55a4df523b3ef846040516106fb919061192b565b60405180910390a39392505050565b6000606560020160009054906101000a900460ff16905090565b600081606b60003373ffffffffffffffffffffffffffffffffffffffff1673ffffffffffffffffffffffffffffffffffffffff16815260200190815260200160002060008573ffffffffffffffffffffffffffffffffffffffff1673ffffffffffffffffffffffffffffffffffffffff16815260200190815260200160002060008282546107b29190611dac565b925050819055506001905092915050565b60695481565b6107d1611343565b6107e3826107de83611235565b6113c1565b5050565b606d5481565b6000806065600101805461080090611d18565b905014905080806108a45750606d546108a287878080601f016020809104026020016040519081016040528093929190818152602001838380828437600081840152601f19601f8201169050808301925050505050505086868080601f016020809104026020016040519081016040528093929190818152602001838380828437600081840152601f19601f8201169050808301925050505050505085611434565b145b6108e3576040517f08c379a00000000000000000000000000000000000000000000000000000000081526004016108da90611e4e565b60405180910390fd5b8585606560010191826108f7929190612054565b5083836065600001918261090c929190612054565b5081606560020160006101000a81548160ff021916908360ff16021790555080610991578160ff168484604051610944929190612163565b6040518091039020878760405161095c929190612163565b60405180910390207f96848da8c41ae282b5ec5c04f45fc469a8186bb78de70419275c2c402fcc27b160405160405180910390a45b505050505050565b8060688190555050565b60006109ed606a60008473ffffffffffffffffffffffffffffffffffffffff1673ffffffffffffffffffffffffffffffffffffffff16815260200190815260200160002054611470565b9050919050565b6109fc611343565b565b606c6020528060005260406000206000915090505481565b60008060019054906101000a900460ff16159050808015610a475750600160008054906101000a900460ff1660ff16105b80610a745750610a56306114ac565b158015610a735750600160008054906101000a900460ff1660ff16145b5b610ab3576040517f08c379a0000000000000000000000000000000000000000000000000000000008152600401610aaa906121ee565b60405180910390fd5b60016000806101000a81548160ff021916908360ff1602179055508015610af0576001600060016101000a81548160ff0219169083151502179055505b610af86114cf565b8015610b515760008060016101000a81548160ff0219169083151502179055507f7f26b83ff96e1f2b6a682f133852f6798a09c465da95921460cefb38474024986001604051610b489190612249565b60405180910390a15b50565b6000603360009054906101000a900473ffffffffffffffffffffffffffffffffffffffff16905090565b606060656000018054610b9090611d18565b80601f0160208091040260200160405190810160405280929190818152602001828054610bbc90611d18565b8015610c095780601f10610bde57610100808354040283529160200191610c09565b820191906000526020600020905b815481529060010190602001808311610bec57829003601f168201915b5050505050905090565b7f000000000000000000000000000000000000000000000000000000000000000081565b610c3f611343565b610c5182610c4c83611235565b611528565b5050565b600081606b60003373ffffffffffffffffffffffffffffffffffffffff1673ffffffffffffffffffffffffffffffffffffffff16815260200190815260200160002060008573ffffffffffffffffffffffffffffffffffffffff1673ffffffffffffffffffffffffffffffffffffffff1681526020019081526020016000206000828254610ce39190611d78565b925050819055506001905092915050565b6000610d093384610d0485611235565b61128a565b90508273ffffffffffffffffffffffffffffffffffffffff163373ffffffffffffffffffffffffffffffffffffffff167fddf252ad1be2c89b69c2b068fc378daa952ba7f163c4a11628f55a4df523b3ef84604051610d68919061192b565b60405180910390a392915050565b610d7e611343565b80606d5414610d8f5780606d819055505b50565b606a6020528060005260406000206000915090505481565b83421115610ded576040517f08c379a0000000000000000000000000000000000000000000000000000000008152600401610de4906122b0565b60405180910390fd5b600073ffffffffffffffffffffffffffffffffffffffff168773ffffffffffffffffffffffffffffffffffffffff1603610e5c576040517f08c379a0000000000000000000000000000000000000000000000000000000008152600401610e539061231c565b60405180910390fd5b6000606c60008973ffffffffffffffffffffffffffffffffffffffff1673ffffffffffffffffffffffffffffffffffffffff16815260200190815260200160002054905060007f0000000000000000000000000000000000000000000000000000000000000000898989858a604051602001610edd9695949392919061233c565b60405160208183030381529060405280519060200120905060007f0000000000000000000000000000000000000000000000000000000000000000610f206110ae565b83604051602001610f3393929190612402565b604051602081830303815290604052805190602001209050600060018288888860405160008152602001604052604051610f70949392919061243f565b6020604051602081039080840390855afa158015610f92573d6000803e3d6000fd5b5050506020604051035190508a73ffffffffffffffffffffffffffffffffffffffff168173ffffffffffffffffffffffffffffffffffffffff161461100c576040517f08c379a0000000000000000000000000000000000000000000000000000000008152600401611003906124d0565b60405180910390fd5b6001846110199190611dac565b606c60008d73ffffffffffffffffffffffffffffffffffffffff1673ffffffffffffffffffffffffffffffffffffffff168152602001908152602001600020819055506110678b8b8b611142565b505050505050505050505050565b606b602052816000526040600020602052806000526040600020600091509150505481565b6110a2611343565b6110ab8161159b565b50565b6000804690507f8b73c3c69bb8fe3d512ecc4cf759cc79239f7b179b0ffacaa9a75d522b39400f60656001016040516110e79190612593565b60405180910390207f000000000000000000000000000000000000000000000000000000000000000083306040516020016111269594939291906125aa565b6040516020818303038152906040528051906020012091505090565b600081606b60008673ffffffffffffffffffffffffffffffffffffffff1673ffffffffffffffffffffffffffffffffffffffff16815260200190815260200160002060008573ffffffffffffffffffffffffffffffffffffffff1673ffffffffffffffffffffffffffffffffffffffff168152602001908152602001600020819055508273ffffffffffffffffffffffffffffffffffffffff163373ffffffffffffffffffffffffffffffffffffffff167f8c5be1e5ebec7d5bd14f71427d1e84f3dd0314c0f7b2291e5b200ac8c7c3b92584604051611222919061192b565b60405180910390a3600190509392505050565b60008060685490506000606954905060008103611256578392505050611285565b6000820361126957600092505050611285565b81818561127691906125fd565b6112809190612686565b925050505b919050565b600081606a60008673ffffffffffffffffffffffffffffffffffffffff1673ffffffffffffffffffffffffffffffffffffffff16815260200190815260200160002060008282546112db9190611d78565b9250508190555081606a60008573ffffffffffffffffffffffffffffffffffffffff1673ffffffffffffffffffffffffffffffffffffffff16815260200190815260200160002060008282546113319190611dac565b92505081905550600190509392505050565b61134b61161e565b73ffffffffffffffffffffffffffffffffffffffff16611369610b54565b73ffffffffffffffffffffffffffffffffffffffff16146113bf576040517f08c379a00000000000000000000000000000000000000000000000000000000081526004016113b690612703565b60405180910390fd5b565b80606960008282546113d39190611dac565b9250508190555080606a60008473ffffffffffffffffffffffffffffffffffffffff1673ffffffffffffffffffffffffffffffffffffffff16815260200190815260200160002060008282546114299190611dac565b925050819055505050565b6000835184845185856040516020016114519594939291906127ab565b6040516020818303038152906040528051906020012090509392505050565b60008060695490506000810361148a5760009150506114a7565b806068548461149991906125fd565b6114a39190612686565b9150505b919050565b6000808273ffffffffffffffffffffffffffffffffffffffff163b119050919050565b600060019054906101000a900460ff1661151e576040517f08c379a000000000000000000000000000000000000000000000000000000000815260040161151590612874565b60405180910390fd5b611526611626565b565b80606a60008473ffffffffffffffffffffffffffffffffffffffff1673ffffffffffffffffffffffffffffffffffffffff16815260200190815260200160002060008282546115779190611d78565b9250508190555080606960008282546115909190611d78565b925050819055505050565b6115a3611343565b600073ffffffffffffffffffffffffffffffffffffffff168173ffffffffffffffffffffffffffffffffffffffff1603611612576040517f08c379a000000000000000000000000000000000000000000000000000000000815260040161160990612906565b60405180910390fd5b61161b81611687565b50565b600033905090565b600060019054906101000a900460ff16611675576040517f08c379a000000000000000000000000000000000000000000000000000000000815260040161166c90612874565b60405180910390fd5b61168561168061161e565b611687565b565b6000603360009054906101000a900473ffffffffffffffffffffffffffffffffffffffff16905081603360006101000a81548173ffffffffffffffffffffffffffffffffffffffff021916908373ffffffffffffffffffffffffffffffffffffffff1602179055508173ffffffffffffffffffffffffffffffffffffffff168173ffffffffffffffffffffffffffffffffffffffff167f8be0079c531659141344cd1fd0a4f28419497f9722a3daafe3b4186f6b6457e060405160405180910390a35050565b600081519050919050565b600082825260208201905092915050565b60005b8381101561178757808201518184015260208101905061176c565b83811115611796576000848401525b50505050565b6000601f19601f8301169050919050565b60006117b88261174d565b6117c28185611758565b93506117d2818560208601611769565b6117db8161179c565b840191505092915050565b6000602082019050818103600083015261180081846117ad565b905092915050565b600080fd5b600080fd5b600073ffffffffffffffffffffffffffffffffffffffff82169050919050565b600061183d82611812565b9050919050565b61184d81611832565b811461185857600080fd5b50565b60008135905061186a81611844565b92915050565b6000819050919050565b61188381611870565b811461188e57600080fd5b50565b6000813590506118a08161187a565b92915050565b600080604083850312156118bd576118bc611808565b5b60006118cb8582860161185b565b92505060206118dc85828601611891565b9150509250929050565b60008115159050919050565b6118fb816118e6565b82525050565b600060208201905061191660008301846118f2565b92915050565b61192581611870565b82525050565b6000602082019050611940600083018461191c565b92915050565b60008060006060848603121561195f5761195e611808565b5b600061196d8682870161185b565b935050602061197e8682870161185b565b925050604061198f86828701611891565b9150509250925092565b600060ff82169050919050565b6119af81611999565b82525050565b60006020820190506119ca60008301846119a6565b92915050565b6000819050919050565b6119e3816119d0565b82525050565b60006020820190506119fe60008301846119da565b92915050565b600080fd5b600080fd5b600080fd5b60008083601f840112611a2957611a28611a04565b5b8235905067ffffffffffffffff811115611a4657611a45611a09565b5b602083019150836001820283011115611a6257611a61611a0e565b5b9250929050565b611a7281611999565b8114611a7d57600080fd5b50565b600081359050611a8f81611a69565b92915050565b600080600080600060608688031215611ab157611ab0611808565b5b600086013567ffffffffffffffff811115611acf57611ace61180d565b5b611adb88828901611a13565b9550955050602086013567ffffffffffffffff811115611afe57611afd61180d565b5b611b0a88828901611a13565b93509350506040611b1d88828901611a80565b9150509295509295909350565b600060208284031215611b4057611b3f611808565b5b6000611b4e84828501611891565b91505092915050565b600060208284031215611b6d57611b6c611808565b5b6000611b7b8482850161185b565b91505092915050565b611b8d81611832565b82525050565b6000602082019050611ba86000830184611b84565b92915050565b611bb7816119d0565b8114611bc257600080fd5b50565b600081359050611bd481611bae565b92915050565b600060208284031215611bf057611bef611808565b5b6000611bfe84828501611bc5565b91505092915050565b600080600080600080600060e0888a031215611c2657611c25611808565b5b6000611c348a828b0161185b565b9750506020611c458a828b0161185b565b9650506040611c568a828b01611891565b9550506060611c678a828b01611891565b9450506080611c788a828b01611a80565b93505060a0611c898a828b01611bc5565b92505060c0611c9a8a828b01611bc5565b91505092959891949750929550565b60008060408385031215611cc057611cbf611808565b5b6000611cce8582860161185b565b9250506020611cdf8582860161185b565b9150509250929050565b7f4e487b7100000000000000000000000000000000000000000000000000000000600052602260045260246000fd5b60006002820490506001821680611d3057607f821691505b602082108103611d4357611d42611ce9565b5b50919050565b7f4e487b7100000000000000000000000000000000000000000000000000000000600052601160045260246000fd5b6000611d8382611870565b9150611d8e83611870565b925082821015611da157611da0611d49565b5b828203905092915050565b6000611db782611870565b9150611dc283611870565b9250827fffffffffffffffffffffffffffffffffffffffffffffffffffffffffffffffff03821115611df757611df6611d49565b5b828201905092915050565b7f21636f6d6d69747465642064657461696c730000000000000000000000000000600082015250565b6000611e38601283611758565b9150611e4382611e02565b602082019050919050565b60006020820190508181036000830152611e6781611e2b565b9050919050565b600082905092915050565b7f4e487b7100000000000000000000000000000000000000000000000000000000600052604160045260246000fd5b60008190508160005260206000209050919050565b60006020601f8301049050919050565b600082821b905092915050565b600060088302611f0a7fffffffffffffffffffffffffffffffffffffffffffffffffffffffffffffffff82611ecd565b611f148683611ecd565b95508019841693508086168417925050509392505050565b6000819050919050565b6000611f51611f4c611f4784611870565b611f2c565b611870565b9050919050565b6000819050919050565b611f6b83611f36565b611f7f611f7782611f58565b848454611eda565b825550505050565b600090565b611f94611f87565b611f9f818484611f62565b505050565b5b81811015611fc357611fb8600082611f8c565b600181019050611fa5565b5050565b601f82111561200857611fd981611ea8565b611fe284611ebd565b81016020851015611ff1578190505b612005611ffd85611ebd565b830182611fa4565b50505b505050565b600082821c905092915050565b600061202b6000198460080261200d565b1980831691505092915050565b6000612044838361201a565b9150826002028217905092915050565b61205e8383611e6e565b67ffffffffffffffff81111561207757612076611e79565b5b6120818254611d18565b61208c828285611fc7565b6000601f8311600181146120bb57600084156120a9578287013590505b6120b38582612038565b86555061211b565b601f1984166120c986611ea8565b60005b828110156120f1578489013582556001820191506020850194506020810190506120cc565b8683101561210e578489013561210a601f89168261201a565b8355505b6001600288020188555050505b50505050505050565b600081905092915050565b82818337600083830152505050565b600061214a8385612124565b935061215783858461212f565b82840190509392505050565b600061217082848661213e565b91508190509392505050565b7f496e697469616c697a61626c653a20636f6e747261637420697320616c72656160008201527f647920696e697469616c697a6564000000000000000000000000000000000000602082015250565b60006121d8602e83611758565b91506121e38261217c565b604082019050919050565b60006020820190508181036000830152612207816121cb565b9050919050565b6000819050919050565b600061223361222e6122298461220e565b611f2c565b611999565b9050919050565b61224381612218565b82525050565b600060208201905061225e600083018461223a565b92915050565b7f45524332305065726d69743a206578706972656420646561646c696e65000000600082015250565b600061229a601d83611758565b91506122a582612264565b602082019050919050565b600060208201905081810360008301526122c98161228d565b9050919050565b7f45524332305065726d69743a206f776e6572207a65726f206164647265737300600082015250565b6000612306601f83611758565b9150612311826122d0565b602082019050919050565b60006020820190508181036000830152612335816122f9565b9050919050565b600060c08201905061235160008301896119da565b61235e6020830188611b84565b61236b6040830187611b84565b612378606083018661191c565b612385608083018561191c565b61239260a083018461191c565b979650505050505050565b600061ffff82169050919050565b60008160f01b9050919050565b60006123c3826123ab565b9050919050565b6123db6123d68261239d565b6123b8565b82525050565b6000819050919050565b6123fc6123f7826119d0565b6123e1565b82525050565b600061240e82866123ca565b60028201915061241e82856123eb565b60208201915061242e82846123eb565b602082019150819050949350505050565b600060808201905061245460008301876119da565b61246160208301866119a6565b61246e60408301856119da565b61247b60608301846119da565b95945050505050565b7f45524332305065726d69743a20696e76616c6964207369676e61747572650000600082015250565b60006124ba601e83611758565b91506124c582612484565b602082019050919050565b600060208201905081810360008301526124e9816124ad565b9050919050565b600081905092915050565b60008190508160005260206000209050919050565b6000815461251d81611d18565b61252781866124f0565b9450600182166000811461254257600181146125575761258a565b60ff198316865281151582028601935061258a565b612560856124fb565b60005b8381101561258257815481890152600182019150602081019050612563565b838801955050505b50505092915050565b600061259f8284612510565b915081905092915050565b600060a0820190506125bf60008301886119da565b6125cc60208301876119da565b6125d960408301866119da565b6125e6606083018561191c565b6125f36080830184611b84565b9695505050505050565b600061260882611870565b915061261383611870565b9250817fffffffffffffffffffffffffffffffffffffffffffffffffffffffffffffffff048311821515161561264c5761264b611d49565b5b828202905092915050565b7f4e487b7100000000000000000000000000000000000000000000000000000000600052601260045260246000fd5b600061269182611870565b915061269c83611870565b9250826126ac576126ab612657565b5b828204905092915050565b7f4f776e61626c653a2063616c6c6572206973206e6f7420746865206f776e6572600082015250565b60006126ed602083611758565b91506126f8826126b7565b602082019050919050565b6000602082019050818103600083015261271c816126e0565b9050919050565b6000819050919050565b61273e61273982611870565b612723565b82525050565b600061274f8261174d565b6127598185612124565b9350612769818560208601611769565b80840191505092915050565b60008160f81b9050919050565b600061278d82612775565b9050919050565b6127a56127a082611999565b612782565b82525050565b60006127b7828861272d565b6020820191506127c78287612744565b91506127d3828661272d565b6020820191506127e38285612744565b91506127ef8284612794565b6001820191508190509695505050505050565b7f496e697469616c697a61626c653a20636f6e7472616374206973206e6f74206960008201527f6e697469616c697a696e67000000000000000000000000000000000000000000602082015250565b600061285e602b83611758565b915061286982612802565b604082019050919050565b6000602082019050818103600083015261288d81612851565b9050919050565b7f4f776e61626c653a206e6577206f776e657220697320746865207a65726f206160008201527f6464726573730000000000000000000000000000000000000000000000000000602082015250565b60006128f0602683611758565b91506128fb82612894565b604082019050919050565b6000602082019050818103600083015261291f816128e3565b905091905056fea26469706673582212207bf93542e0c27de17e1cdece963bf660d590fb16a899464518c2cfb54466581964736f6c634300080f0033",
  "devdoc": {
    "kind": "dev",
    "methods": {
      "approve(address,uint256)": {
        "details": "Sets `_amount` as the allowance of `_spender` over the caller's tokens.Emits an `Approval` event.",
        "params": {
          "_amount": "token ammount to approve for spending.",
          "_spender": "account to approve tokens for spending."
        },
        "returns": {
          "_0": "success boolean value indicating whether the operation succeeded."
        }
      },
      "balanceOf(address)": {
        "details": "Returns the amount of tokens (amount represented by shares) owned by `_account`.",
        "params": {
          "_account": "Account whose balance is requested."
        }
      },
      "burn(address,uint256)": {
        "details": "Emits a {Transfer} event with `to` set to the zero address. Requirements: - `_from` cannot be the zero address. - `_from` must have at least `_amnt` tokens.",
        "params": {
          "_amnt": "The amount of tokens to be destroyed",
          "_from": "The address from which to destroy the tokens"
        }
      },
      "decimals()": {
        "details": "Returns the number of decimals used to get its user representation. For example, if `decimals` equals `2`, a balance of `505` tokens should be displayed to a user as `5,05` (`505 / 10 ** 2`). Tokens usually opt for a value of 18, imitating the relationship between Ether and Wei. This is the value {ERC20} uses, unless {_setupDecimals} is called. NOTE: This information is only used for _display_ purposes: it in no way affects any of the arithmetic of the contract, including {IERC20-balanceOf} and {IERC20-transfer}."
      },
      "decreaseAllowance(address,uint256)": {
        "details": "Reduces allowance by `_amount` for `spender` over the caller's tokens.",
        "params": {
          "_spender": "account to increase token allowance for spending.",
          "_subtractedValue": "token ammount to subtract from existing allowance."
        },
        "returns": {
          "_0": "success boolean value indicating whether the operation succeeded."
        }
      },
      "domainSeparator()": {
        "details": "This is ALWAYS calculated at runtime because the token name may change"
      },
      "increaseAllowance(address,uint256)": {
        "details": "Increases allowance by `_amount` for `spender` over the caller's tokens.",
        "params": {
          "_addedValue": "token ammount to add to existing allowance.",
          "_spender": "account to increase token allowance for spending."
        },
        "returns": {
          "_0": "success boolean value indicating whether the operation succeeded."
        }
      },
      "mint(address,uint256)": {
        "details": "Emits a {Transfer} event with `from` set to the zero address. Requirements: - `to` cannot be the zero address.",
        "params": {
          "_amnt": "The amount of tokens to be minted",
          "_to": "The destination address"
        }
      },
      "name()": {
        "details": "Returns the name of the token."
      },
      "owner()": {
        "details": "Returns the address of the current owner."
      },
      "permit(address,address,uint256,uint256,uint8,bytes32,bytes32)": {
        "params": {
          "_deadline": "The timestamp before which the signature must be submitted",
          "_owner": "The account setting approval & signing the message",
          "_r": "ECDSA signature r",
          "_s": "ECDSA signature s",
          "_spender": "The account receiving approval to spend owner's tokens",
          "_v": "ECDSA signature v",
          "_value": "The amount to set approval for"
        }
      },
      "renounceOwnership()": {
        "details": "should be impossible to renounce ownership; we override OpenZeppelin OwnableUpgradeable's implementation of renounceOwnership to make it a no-op"
      },
      "setDetails(string,string,uint8)": {
        "params": {
          "_newDecimals": "The new decimals",
          "_newName": "The new name",
          "_newSymbol": "The new symbol"
        }
      },
      "setDetailsHash(bytes32)": {
        "params": {
          "_detailsHash": "the new details hash."
        }
      },
      "symbol()": {
        "details": "Returns the symbol of the token, usually a shorter version of the name."
      },
      "transfer(address,uint256)": {
        "details": "Emits a `Transfer` event.The `_amount` argument is the amount of tokens, not shares.",
        "params": {
          "_amount": "amount of tokens to transfer",
          "_to": "address of the recipient"
        },
        "returns": {
          "success": "a boolean value indicating whether the operation succeeded."
        }
      },
      "transferFrom(address,address,uint256)": {
        "details": "Emits a `Transfer` event.Reduces allowance bt `_amount`The `_amount` argument is the amount of tokens, not shares.",
        "params": {
          "_from": "address of the account to transfer tokens from",
          "_to": "address of the recipient"
        },
        "returns": {
          "success": "a boolean value indicating whether the operation succeeded."
        }
      }
    },
    "stateVariables": {
      "detailsHash": {
        "details": "hash commitment to the name/symbol/decimals"
      }
    },
    "version": 1
  },
  "userdoc": {
    "events": {
      "Approval(address,address,uint256)": {
        "notice": "Approve gets emitted when TenderTokens are approved for spending."
      },
      "Transfer(address,address,uint256)": {
        "notice": "Transfer gets emitted when TenderTokens are transferred."
      }
    },
    "kind": "user",
    "methods": {
      "burn(address,uint256)": {
        "notice": "Destroys `_amnt` tokens from `_from`, reducing the total supply."
      },
      "mint(address,uint256)": {
        "notice": "Creates `_amnt` tokens and assigns them to `_to`, increasing the total supply."
      },
      "permit(address,address,uint256,uint256,uint8,bytes32,bytes32)": {
        "notice": "Sets approval from owner to spender to value as long as deadline has not passed by submitting a valid signature from owner Uses EIP 712 structured data hashing & signing https://eips.ethereum.org/EIPS/eip-712"
      },
      "setDetails(string,string,uint8)": {
        "notice": "Set the details of a token"
      },
      "setDetailsHash(bytes32)": {
        "notice": "allows the owner to set the details hash commitment."
      },
      "totalSupply()": {
        "notice": "Total amount of tokens staked"
      },
      "transfer(address,uint256)": {
        "notice": "Transfers `_amount` tokens from the caller's account to the `_to` account."
      },
      "transferFrom(address,address,uint256)": {
        "notice": "Transfers `_amount` tokens from `_from` to `_to` using the allowance mechanism. `_amount` is then deducted from the caller's allowance."
      }
    },
    "version": 1
  },
  "storageLayout": {
    "storage": [
      {
        "astId": 138,
        "contract": "contracts/ABridgeToken.sol:ABridgeToken",
        "label": "_initialized",
        "offset": 0,
        "slot": "0",
        "type": "t_uint8"
      },
      {
        "astId": 141,
        "contract": "contracts/ABridgeToken.sol:ABridgeToken",
        "label": "_initializing",
        "offset": 1,
        "slot": "0",
        "type": "t_bool"
      },
      {
        "astId": 566,
        "contract": "contracts/ABridgeToken.sol:ABridgeToken",
        "label": "__gap",
        "offset": 0,
        "slot": "1",
        "type": "t_array(t_uint256)50_storage"
      },
      {
        "astId": 10,
        "contract": "contracts/ABridgeToken.sol:ABridgeToken",
        "label": "_owner",
        "offset": 0,
        "slot": "51",
        "type": "t_address"
      },
      {
        "astId": 130,
        "contract": "contracts/ABridgeToken.sol:ABridgeToken",
        "label": "__gap",
        "offset": 0,
        "slot": "52",
        "type": "t_array(t_uint256)49_storage"
      },
      {
        "astId": 4443,
        "contract": "contracts/ABridgeToken.sol:ABridgeToken",
        "label": "token",
        "offset": 0,
        "slot": "101",
        "type": "t_struct(Token)4440_storage"
      },
      {
        "astId": 4446,
        "contract": "contracts/ABridgeToken.sol:ABridgeToken",
        "label": "totalSupply",
        "offset": 0,
        "slot": "104",
        "type": "t_uint256"
      },
      {
        "astId": 4449,
        "contract": "contracts/ABridgeToken.sol:ABridgeToken",
        "label": "totalShares",
        "offset": 0,
        "slot": "105",
        "type": "t_uint256"
      },
      {
        "astId": 4454,
        "contract": "contracts/ABridgeToken.sol:ABridgeToken",
        "label": "shares",
        "offset": 0,
        "slot": "106",
        "type": "t_mapping(t_address,t_uint256)"
      },
      {
        "astId": 4461,
        "contract": "contracts/ABridgeToken.sol:ABridgeToken",
        "label": "allowance",
        "offset": 0,
        "slot": "107",
        "type": "t_mapping(t_address,t_mapping(t_address,t_uint256))"
      },
      {
        "astId": 4079,
        "contract": "contracts/ABridgeToken.sol:ABridgeToken",
        "label": "nonces",
        "offset": 0,
        "slot": "108",
        "type": "t_mapping(t_address,t_uint256)"
      },
      {
        "astId": 4082,
        "contract": "contracts/ABridgeToken.sol:ABridgeToken",
        "label": "detailsHash",
        "offset": 0,
        "slot": "109",
        "type": "t_bytes32"
      }
    ],
    "types": {
      "t_address": {
        "encoding": "inplace",
        "label": "address",
        "numberOfBytes": "20"
      },
      "t_array(t_uint256)49_storage": {
        "base": "t_uint256",
        "encoding": "inplace",
        "label": "uint256[49]",
        "numberOfBytes": "1568"
      },
      "t_array(t_uint256)50_storage": {
        "base": "t_uint256",
        "encoding": "inplace",
        "label": "uint256[50]",
        "numberOfBytes": "1600"
      },
      "t_bool": {
        "encoding": "inplace",
        "label": "bool",
        "numberOfBytes": "1"
      },
      "t_bytes32": {
        "encoding": "inplace",
        "label": "bytes32",
        "numberOfBytes": "32"
      },
      "t_mapping(t_address,t_mapping(t_address,t_uint256))": {
        "encoding": "mapping",
        "key": "t_address",
        "label": "mapping(address => mapping(address => uint256))",
        "numberOfBytes": "32",
        "value": "t_mapping(t_address,t_uint256)"
      },
      "t_mapping(t_address,t_uint256)": {
        "encoding": "mapping",
        "key": "t_address",
        "label": "mapping(address => uint256)",
        "numberOfBytes": "32",
        "value": "t_uint256"
      },
      "t_string_storage": {
        "encoding": "bytes",
        "label": "string",
        "numberOfBytes": "32"
      },
      "t_struct(Token)4440_storage": {
        "encoding": "inplace",
        "label": "struct AERC20.Token",
        "members": [
          {
            "astId": 4435,
            "contract": "contracts/ABridgeToken.sol:ABridgeToken",
            "label": "symbol",
            "offset": 0,
            "slot": "0",
            "type": "t_string_storage"
          },
          {
            "astId": 4437,
            "contract": "contracts/ABridgeToken.sol:ABridgeToken",
            "label": "name",
            "offset": 0,
            "slot": "1",
            "type": "t_string_storage"
          },
          {
            "astId": 4439,
            "contract": "contracts/ABridgeToken.sol:ABridgeToken",
            "label": "decimals",
            "offset": 0,
            "slot": "2",
            "type": "t_uint8"
          }
        ],
        "numberOfBytes": "96"
      },
      "t_uint256": {
        "encoding": "inplace",
        "label": "uint256",
        "numberOfBytes": "32"
      },
      "t_uint8": {
        "encoding": "inplace",
        "label": "uint8",
        "numberOfBytes": "1"
      }
    }
  }
}