{
  "address": "0x7E3C3C6DB47161fb8EFEd621FD39108461606fBa",
  "abi": [
    {
      "inputs": [
        {
          "internalType": "string",
          "name": "name",
          "type": "string"
        },
        {
          "internalType": "string",
          "name": "symbol",
          "type": "string"
        },
        {
          "internalType": "uint256",
          "name": "initialSupply",
          "type": "uint256"
        }
      ],
      "stateMutability": "nonpayable",
      "type": "constructor"
    },
    {
      "anonymous": false,
      "inputs": [
        {
          "indexed": true,
          "internalType": "address",
          "name": "owner",
          "type": "address"
        },
        {
          "indexed": true,
          "internalType": "address",
          "name": "spender",
          "type": "address"
        },
        {
          "indexed": false,
          "internalType": "uint256",
          "name": "value",
          "type": "uint256"
        }
      ],
      "name": "Approval",
      "type": "event"
    },
    {
      "anonymous": false,
      "inputs": [
        {
          "indexed": true,
          "internalType": "address",
          "name": "from",
          "type": "address"
        },
        {
          "indexed": true,
          "internalType": "address",
          "name": "to",
          "type": "address"
        },
        {
          "indexed": false,
          "internalType": "uint256",
          "name": "value",
          "type": "uint256"
        }
      ],
      "name": "Transfer",
      "type": "event"
    },
    {
      "inputs": [],
      "name": "DOMAIN_SEPARATOR",
      "outputs": [
        {
          "internalType": "bytes32",
          "name": "",
          "type": "bytes32"
        }
      ],
      "stateMutability": "view",
      "type": "function"
    },
    {
      "inputs": [
        {
          "internalType": "address",
          "name": "owner",
          "type": "address"
        },
        {
          "internalType": "address",
          "name": "spender",
          "type": "address"
        }
      ],
      "name": "allowance",
      "outputs": [
        {
          "internalType": "uint256",
          "name": "",
          "type": "uint256"
        }
      ],
      "stateMutability": "view",
      "type": "function"
    },
    {
      "inputs": [
        {
          "internalType": "address",
          "name": "spender",
          "type": "address"
        },
        {
          "internalType": "uint256",
          "name": "amount",
          "type": "uint256"
        }
      ],
      "name": "approve",
      "outputs": [
        {
          "internalType": "bool",
          "name": "",
          "type": "bool"
        }
      ],
      "stateMutability": "nonpayable",
      "type": "function"
    },
    {
      "inputs": [
        {
          "internalType": "address",
          "name": "account",
          "type": "address"
        }
      ],
      "name": "balanceOf",
      "outputs": [
        {
          "internalType": "uint256",
          "name": "",
          "type": "uint256"
        }
      ],
      "stateMutability": "view",
      "type": "function"
    },
    {
      "inputs": [],
      "name": "decimals",
      "outputs": [
        {
          "internalType": "uint8",
          "name": "",
          "type": "uint8"
        }
      ],
      "stateMutability": "view",
      "type": "function"
    },
    {
      "inputs": [
        {
          "internalType": "address",
          "name": "spender",
          "type": "address"
        },
        {
          "internalType": "uint256",
          "name": "subtractedValue",
          "type": "uint256"
        }
      ],
      "name": "decreaseAllowance",
      "outputs": [
        {
          "internalType": "bool",
          "name": "",
          "type": "bool"
        }
      ],
      "stateMutability": "nonpayable",
      "type": "function"
    },
    {
      "inputs": [
        {
          "internalType": "address",
          "name": "spender",
          "type": "address"
        },
        {
          "internalType": "uint256",
          "name": "addedValue",
          "type": "uint256"
        }
      ],
      "name": "increaseAllowance",
      "outputs": [
        {
          "internalType": "bool",
          "name": "",
          "type": "bool"
        }
      ],
      "stateMutability": "nonpayable",
      "type": "function"
    },
    {
      "inputs": [
        {
          "internalType": "address",
          "name": "recipient",
          "type": "address"
        },
        {
          "internalType": "uint256",
          "name": "amount",
          "type": "uint256"
        }
      ],
      "name": "mint",
      "outputs": [],
      "stateMutability": "nonpayable",
      "type": "function"
    },
    {
      "inputs": [],
      "name": "name",
      "outputs": [
        {
          "internalType": "string",
          "name": "",
          "type": "string"
        }
      ],
      "stateMutability": "view",
      "type": "function"
    },
    {
      "inputs": [
        {
          "internalType": "address",
          "name": "owner",
          "type": "address"
        }
      ],
      "name": "nonces",
      "outputs": [
        {
          "internalType": "uint256",
          "name": "",
          "type": "uint256"
        }
      ],
      "stateMutability": "view",
      "type": "function"
    },
    {
      "inputs": [
        {
          "internalType": "address",
          "name": "owner",
          "type": "address"
        },
        {
          "internalType": "address",
          "name": "spender",
          "type": "address"
        },
        {
          "internalType": "uint256",
          "name": "value",
          "type": "uint256"
        },
        {
          "internalType": "uint256",
          "name": "deadline",
          "type": "uint256"
        },
        {
          "internalType": "uint8",
          "name": "v",
          "type": "uint8"
        },
        {
          "internalType": "bytes32",
          "name": "r",
          "type": "bytes32"
        },
        {
          "internalType": "bytes32",
          "name": "s",
          "type": "bytes32"
        }
      ],
      "name": "permit",
      "outputs": [],
      "stateMutability": "nonpayable",
      "type": "function"
    },
    {
      "inputs": [],
      "name": "symbol",
      "outputs": [
        {
          "internalType": "string",
          "name": "",
          "type": "string"
        }
      ],
      "stateMutability": "view",
      "type": "function"
    },
    {
      "inputs": [],
      "name": "totalSupply",
      "outputs": [
        {
          "internalType": "uint256",
          "name": "",
          "type": "uint256"
        }
      ],
      "stateMutability": "view",
      "type": "function"
    },
    {
      "inputs": [
        {
          "internalType": "address",
          "name": "to",
          "type": "address"
        },
        {
          "internalType": "uint256",
          "name": "amount",
          "type": "uint256"
        }
      ],
      "name": "transfer",
      "outputs": [
        {
          "internalType": "bool",
          "name": "",
          "type": "bool"
        }
      ],
      "stateMutability": "nonpayable",
      "type": "function"
    },
    {
      "inputs": [
        {
          "internalType": "address",
          "name": "from",
          "type": "address"
        },
        {
          "internalType": "address",
          "name": "to",
          "type": "address"
        },
        {
          "internalType": "uint256",
          "name": "amount",
          "type": "uint256"
        }
      ],
      "name": "transferFrom",
      "outputs": [
        {
          "internalType": "bool",
          "name": "",
          "type": "bool"
        }
      ],
      "stateMutability": "nonpayable",
      "type": "function"
    }
  ],
  "transactionHash": "0xa0cc72489fe606c59e6be793b1fe37cbf8827a420a2364fd2d775737fa5937d2",
  "args": [
    "Mock Token",
    "aMCK",
    10000000000000
  ],
  "numDeployments": 1,
  "solcInputHash": "d216661bc5af561d28ec5fd946b59ebb",
  "bytecode": "0x6101406040523480156200001257600080fd5b5060405162002d7438038062002d748339818101604052810190620000389190620004fc565b82806040518060400160405280600181526020017f310000000000000000000000000000000000000000000000000000000000000081525085858160039081620000839190620007d7565b508060049081620000959190620007d7565b50505060008280519060200120905060008280519060200120905060007f8b73c3c69bb8fe3d512ecc4cf759cc79239f7b179b0ffacaa9a75d522b39400f90508260e081815250508161010081815250504660a08181525050620001018184846200016660201b60201c565b608081815250503073ffffffffffffffffffffffffffffffffffffffff1660c08173ffffffffffffffffffffffffffffffffffffffff16815250508061012081815250505050505050506200015d3382620001a260201b60201c565b50505062000ab8565b60008383834630604051602001620001839594939291906200092f565b6040516020818303038152906040528051906020012090509392505050565b600073ffffffffffffffffffffffffffffffffffffffff168273ffffffffffffffffffffffffffffffffffffffff160362000214576040517f08c379a00000000000000000000000000000000000000000000000000000000081526004016200020b90620009ed565b60405180910390fd5b62000228600083836200031a60201b60201c565b80600260008282546200023c919062000a3e565b92505081905550806000808473ffffffffffffffffffffffffffffffffffffffff1673ffffffffffffffffffffffffffffffffffffffff168152602001908152602001600020600082825462000293919062000a3e565b925050819055508173ffffffffffffffffffffffffffffffffffffffff16600073ffffffffffffffffffffffffffffffffffffffff167fddf252ad1be2c89b69c2b068fc378daa952ba7f163c4a11628f55a4df523b3ef83604051620002fa919062000a9b565b60405180910390a362000316600083836200031f60201b60201c565b5050565b505050565b505050565b6000604051905090565b600080fd5b600080fd5b600080fd5b600080fd5b6000601f19601f8301169050919050565b7f4e487b7100000000000000000000000000000000000000000000000000000000600052604160045260246000fd5b6200038d8262000342565b810181811067ffffffffffffffff82111715620003af57620003ae62000353565b5b80604052505050565b6000620003c462000324565b9050620003d2828262000382565b919050565b600067ffffffffffffffff821115620003f557620003f462000353565b5b620004008262000342565b9050602081019050919050565b60005b838110156200042d57808201518184015260208101905062000410565b838111156200043d576000848401525b50505050565b60006200045a6200045484620003d7565b620003b8565b9050828152602081018484840111156200047957620004786200033d565b5b620004868482856200040d565b509392505050565b600082601f830112620004a657620004a562000338565b5b8151620004b884826020860162000443565b91505092915050565b6000819050919050565b620004d681620004c1565b8114620004e257600080fd5b50565b600081519050620004f681620004cb565b92915050565b6000806000606084860312156200051857620005176200032e565b5b600084015167ffffffffffffffff81111562000539576200053862000333565b5b62000547868287016200048e565b935050602084015167ffffffffffffffff8111156200056b576200056a62000333565b5b62000579868287016200048e565b92505060406200058c86828701620004e5565b9150509250925092565b600081519050919050565b7f4e487b7100000000000000000000000000000000000000000000000000000000600052602260045260246000fd5b60006002820490506001821680620005e957607f821691505b602082108103620005ff57620005fe620005a1565b5b50919050565b60008190508160005260206000209050919050565b60006020601f8301049050919050565b600082821b905092915050565b600060088302620006697fffffffffffffffffffffffffffffffffffffffffffffffffffffffffffffffff826200062a565b6200067586836200062a565b95508019841693508086168417925050509392505050565b6000819050919050565b6000620006b8620006b2620006ac84620004c1565b6200068d565b620004c1565b9050919050565b6000819050919050565b620006d48362000697565b620006ec620006e382620006bf565b84845462000637565b825550505050565b600090565b62000703620006f4565b62000710818484620006c9565b505050565b5b8181101562000738576200072c600082620006f9565b60018101905062000716565b5050565b601f8211156200078757620007518162000605565b6200075c846200061a565b810160208510156200076c578190505b620007846200077b856200061a565b83018262000715565b50505b505050565b600082821c905092915050565b6000620007ac600019846008026200078c565b1980831691505092915050565b6000620007c7838362000799565b9150826002028217905092915050565b620007e28262000596565b67ffffffffffffffff811115620007fe57620007fd62000353565b5b6200080a8254620005d0565b620008178282856200073c565b600060209050601f8311600181146200084f57600084156200083a578287015190505b620008468582620007b9565b865550620008b6565b601f1984166200085f8662000605565b60005b82811015620008895784890151825560018201915060208501945060208101905062000862565b86831015620008a95784890151620008a5601f89168262000799565b8355505b6001600288020188555050505b505050505050565b6000819050919050565b620008d381620008be565b82525050565b620008e481620004c1565b82525050565b600073ffffffffffffffffffffffffffffffffffffffff82169050919050565b60006200091782620008ea565b9050919050565b62000929816200090a565b82525050565b600060a082019050620009466000830188620008c8565b620009556020830187620008c8565b620009646040830186620008c8565b620009736060830185620008d9565b6200098260808301846200091e565b9695505050505050565b600082825260208201905092915050565b7f45524332303a206d696e7420746f20746865207a65726f206164647265737300600082015250565b6000620009d5601f836200098c565b9150620009e2826200099d565b602082019050919050565b6000602082019050818103600083015262000a0881620009c6565b9050919050565b7f4e487b7100000000000000000000000000000000000000000000000000000000600052601160045260246000fd5b600062000a4b82620004c1565b915062000a5883620004c1565b9250827fffffffffffffffffffffffffffffffffffffffffffffffffffffffffffffffff0382111562000a905762000a8f62000a0f565b5b828201905092915050565b600060208201905062000ab26000830184620008d9565b92915050565b60805160a05160c05160e051610100516101205161226c62000b086000396000610ded01526000610e2f01526000610e0e01526000610d4301526000610d9901526000610dc2015261226c6000f3fe608060405234801561001057600080fd5b50600436106100f55760003560e01c806340c10f1911610097578063a457c2d711610066578063a457c2d71461029c578063a9059cbb146102cc578063d505accf146102fc578063dd62ed3e14610318576100f5565b806340c10f191461020257806370a082311461021e5780637ecebe001461024e57806395d89b411461027e576100f5565b806323b872dd116100d357806323b872dd14610166578063313ce567146101965780633644e515146101b457806339509351146101d2576100f5565b806306fdde03146100fa578063095ea7b31461011857806318160ddd14610148575b600080fd5b610102610348565b60405161010f9190611467565b60405180910390f35b610132600480360381019061012d9190611522565b6103da565b60405161013f919061157d565b60405180910390f35b6101506103fd565b60405161015d91906115a7565b60405180910390f35b610180600480360381019061017b91906115c2565b610407565b60405161018d919061157d565b60405180910390f35b61019e610436565b6040516101ab9190611631565b60405180910390f35b6101bc61043f565b6040516101c99190611665565b60405180910390f35b6101ec60048036038101906101e79190611522565b61044e565b6040516101f9919061157d565b60405180910390f35b61021c60048036038101906102179190611522565b610485565b005b61023860048036038101906102339190611680565b6104d6565b60405161024591906115a7565b60405180910390f35b61026860048036038101906102639190611680565b61051e565b60405161027591906115a7565b60405180910390f35b61028661056e565b6040516102939190611467565b60405180910390f35b6102b660048036038101906102b19190611522565b610600565b6040516102c3919061157d565b60405180910390f35b6102e660048036038101906102e19190611522565b610677565b6040516102f3919061157d565b60405180910390f35b61031660048036038101906103119190611705565b61069a565b005b610332600480360381019061032d91906117a7565b6107dc565b60405161033f91906115a7565b60405180910390f35b60606003805461035790611816565b80601f016020809104026020016040519081016040528092919081815260200182805461038390611816565b80156103d05780601f106103a5576101008083540402835291602001916103d0565b820191906000526020600020905b8154815290600101906020018083116103b357829003601f168201915b5050505050905090565b6000806103e5610863565b90506103f281858561086b565b600191505092915050565b6000600254905090565b600080610412610863565b905061041f858285610a34565b61042a858585610ac0565b60019150509392505050565b60006012905090565b6000610449610d3f565b905090565b600080610459610863565b905061047a81858561046b85896107dc565b6104759190611876565b61086b565b600191505092915050565b600081036104c8576040517f08c379a00000000000000000000000000000000000000000000000000000000081526004016104bf90611918565b60405180910390fd5b6104d28282610e59565b5050565b60008060008373ffffffffffffffffffffffffffffffffffffffff1673ffffffffffffffffffffffffffffffffffffffff168152602001908152602001600020549050919050565b6000610567600560008473ffffffffffffffffffffffffffffffffffffffff1673ffffffffffffffffffffffffffffffffffffffff168152602001908152602001600020610fb8565b9050919050565b60606004805461057d90611816565b80601f01602080910402602001604051908101604052809291908181526020018280546105a990611816565b80156105f65780601f106105cb576101008083540402835291602001916105f6565b820191906000526020600020905b8154815290600101906020018083116105d957829003601f168201915b5050505050905090565b60008061060b610863565b9050600061061982866107dc565b90508381101561065e576040517f08c379a0000000000000000000000000000000000000000000000000000000008152600401610655906119aa565b60405180910390fd5b61066b828686840361086b565b60019250505092915050565b600080610682610863565b905061068f818585610ac0565b600191505092915050565b834211156106dd576040517f08c379a00000000000000000000000000000000000000000000000000000000081526004016106d490611a16565b60405180910390fd5b60007f6e71edae12b1b97f4d1f60370fef10105fa2faae0126114a169c64845d6126c988888861070c8c610fc6565b8960405160200161072296959493929190611a45565b604051602081830303815290604052805190602001209050600061074582611024565b905060006107558287878761103e565b90508973ffffffffffffffffffffffffffffffffffffffff168173ffffffffffffffffffffffffffffffffffffffff16146107c5576040517f08c379a00000000000000000000000000000000000000000000000000000000081526004016107bc90611af2565b60405180910390fd5b6107d08a8a8a61086b565b50505050505050505050565b6000600160008473ffffffffffffffffffffffffffffffffffffffff1673ffffffffffffffffffffffffffffffffffffffff16815260200190815260200160002060008373ffffffffffffffffffffffffffffffffffffffff1673ffffffffffffffffffffffffffffffffffffffff16815260200190815260200160002054905092915050565b600033905090565b600073ffffffffffffffffffffffffffffffffffffffff168373ffffffffffffffffffffffffffffffffffffffff16036108da576040517f08c379a00000000000000000000000000000000000000000000000000000000081526004016108d190611b84565b60405180910390fd5b600073ffffffffffffffffffffffffffffffffffffffff168273ffffffffffffffffffffffffffffffffffffffff1603610949576040517f08c379a000000000000000000000000000000000000000000000000000000000815260040161094090611c16565b60405180910390fd5b80600160008573ffffffffffffffffffffffffffffffffffffffff1673ffffffffffffffffffffffffffffffffffffffff16815260200190815260200160002060008473ffffffffffffffffffffffffffffffffffffffff1673ffffffffffffffffffffffffffffffffffffffff168152602001908152602001600020819055508173ffffffffffffffffffffffffffffffffffffffff168373ffffffffffffffffffffffffffffffffffffffff167f8c5be1e5ebec7d5bd14f71427d1e84f3dd0314c0f7b2291e5b200ac8c7c3b92583604051610a2791906115a7565b60405180910390a3505050565b6000610a4084846107dc565b90507fffffffffffffffffffffffffffffffffffffffffffffffffffffffffffffffff8114610aba5781811015610aac576040517f08c379a0000000000000000000000000000000000000000000000000000000008152600401610aa390611c82565b60405180910390fd5b610ab9848484840361086b565b5b50505050565b600073ffffffffffffffffffffffffffffffffffffffff168373ffffffffffffffffffffffffffffffffffffffff1603610b2f576040517f08c379a0000000000000000000000000000000000000000000000000000000008152600401610b2690611d14565b60405180910390fd5b600073ffffffffffffffffffffffffffffffffffffffff168273ffffffffffffffffffffffffffffffffffffffff1603610b9e576040517f08c379a0000000000000000000000000000000000000000000000000000000008152600401610b9590611da6565b60405180910390fd5b610ba9838383611069565b60008060008573ffffffffffffffffffffffffffffffffffffffff1673ffffffffffffffffffffffffffffffffffffffff16815260200190815260200160002054905081811015610c2f576040517f08c379a0000000000000000000000000000000000000000000000000000000008152600401610c2690611e38565b60405180910390fd5b8181036000808673ffffffffffffffffffffffffffffffffffffffff1673ffffffffffffffffffffffffffffffffffffffff16815260200190815260200160002081905550816000808573ffffffffffffffffffffffffffffffffffffffff1673ffffffffffffffffffffffffffffffffffffffff1681526020019081526020016000206000828254610cc29190611876565b925050819055508273ffffffffffffffffffffffffffffffffffffffff168473ffffffffffffffffffffffffffffffffffffffff167fddf252ad1be2c89b69c2b068fc378daa952ba7f163c4a11628f55a4df523b3ef84604051610d2691906115a7565b60405180910390a3610d3984848461106e565b50505050565b60007f000000000000000000000000000000000000000000000000000000000000000073ffffffffffffffffffffffffffffffffffffffff163073ffffffffffffffffffffffffffffffffffffffff16148015610dbb57507f000000000000000000000000000000000000000000000000000000000000000046145b15610de8577f00000000000000000000000000000000000000000000000000000000000000009050610e56565b610e537f00000000000000000000000000000000000000000000000000000000000000007f00000000000000000000000000000000000000000000000000000000000000007f0000000000000000000000000000000000000000000000000000000000000000611073565b90505b90565b600073ffffffffffffffffffffffffffffffffffffffff168273ffffffffffffffffffffffffffffffffffffffff1603610ec8576040517f08c379a0000000000000000000000000000000000000000000000000000000008152600401610ebf90611ea4565b60405180910390fd5b610ed460008383611069565b8060026000828254610ee69190611876565b92505081905550806000808473ffffffffffffffffffffffffffffffffffffffff1673ffffffffffffffffffffffffffffffffffffffff1681526020019081526020016000206000828254610f3b9190611876565b925050819055508173ffffffffffffffffffffffffffffffffffffffff16600073ffffffffffffffffffffffffffffffffffffffff167fddf252ad1be2c89b69c2b068fc378daa952ba7f163c4a11628f55a4df523b3ef83604051610fa091906115a7565b60405180910390a3610fb46000838361106e565b5050565b600081600001549050919050565b600080600560008473ffffffffffffffffffffffffffffffffffffffff1673ffffffffffffffffffffffffffffffffffffffff168152602001908152602001600020905061101381610fb8565b915061101e816110ad565b50919050565b6000611037611031610d3f565b836110c3565b9050919050565b600080600061104f878787876110f6565b9150915061105c81611202565b8192505050949350505050565b505050565b505050565b6000838383463060405160200161108e959493929190611ec4565b6040516020818303038152906040528051906020012090509392505050565b6001816000016000828254019250508190555050565b600082826040516020016110d8929190611f8f565b60405160208183030381529060405280519060200120905092915050565b6000807f7fffffffffffffffffffffffffffffff5d576e7357a4501ddfe92f46681b20a08360001c11156111315760006003915091506111f9565b601b8560ff16141580156111495750601c8560ff1614155b1561115b5760006004915091506111f9565b6000600187878787604051600081526020016040526040516111809493929190611fc6565b6020604051602081039080840390855afa1580156111a2573d6000803e3d6000fd5b505050602060405103519050600073ffffffffffffffffffffffffffffffffffffffff168173ffffffffffffffffffffffffffffffffffffffff16036111f0576000600192509250506111f9565b80600092509250505b94509492505050565b600060048111156112165761121561200b565b5b8160048111156112295761122861200b565b5b03156113cb57600160048111156112435761124261200b565b5b8160048111156112565761125561200b565b5b03611296576040517f08c379a000000000000000000000000000000000000000000000000000000000815260040161128d90612086565b60405180910390fd5b600260048111156112aa576112a961200b565b5b8160048111156112bd576112bc61200b565b5b036112fd576040517f08c379a00000000000000000000000000000000000000000000000000000000081526004016112f4906120f2565b60405180910390fd5b600360048111156113115761131061200b565b5b8160048111156113245761132361200b565b5b03611364576040517f08c379a000000000000000000000000000000000000000000000000000000000815260040161135b90612184565b60405180910390fd5b6004808111156113775761137661200b565b5b81600481111561138a5761138961200b565b5b036113ca576040517f08c379a00000000000000000000000000000000000000000000000000000000081526004016113c190612216565b60405180910390fd5b5b50565b600081519050919050565b600082825260208201905092915050565b60005b838110156114085780820151818401526020810190506113ed565b83811115611417576000848401525b50505050565b6000601f19601f8301169050919050565b6000611439826113ce565b61144381856113d9565b93506114538185602086016113ea565b61145c8161141d565b840191505092915050565b60006020820190508181036000830152611481818461142e565b905092915050565b600080fd5b600073ffffffffffffffffffffffffffffffffffffffff82169050919050565b60006114b98261148e565b9050919050565b6114c9816114ae565b81146114d457600080fd5b50565b6000813590506114e6816114c0565b92915050565b6000819050919050565b6114ff816114ec565b811461150a57600080fd5b50565b60008135905061151c816114f6565b92915050565b6000806040838503121561153957611538611489565b5b6000611547858286016114d7565b92505060206115588582860161150d565b9150509250929050565b60008115159050919050565b61157781611562565b82525050565b6000602082019050611592600083018461156e565b92915050565b6115a1816114ec565b82525050565b60006020820190506115bc6000830184611598565b92915050565b6000806000606084860312156115db576115da611489565b5b60006115e9868287016114d7565b93505060206115fa868287016114d7565b925050604061160b8682870161150d565b9150509250925092565b600060ff82169050919050565b61162b81611615565b82525050565b60006020820190506116466000830184611622565b92915050565b6000819050919050565b61165f8161164c565b82525050565b600060208201905061167a6000830184611656565b92915050565b60006020828403121561169657611695611489565b5b60006116a4848285016114d7565b91505092915050565b6116b681611615565b81146116c157600080fd5b50565b6000813590506116d3816116ad565b92915050565b6116e28161164c565b81146116ed57600080fd5b50565b6000813590506116ff816116d9565b92915050565b600080600080600080600060e0888a03121561172457611723611489565b5b60006117328a828b016114d7565b97505060206117438a828b016114d7565b96505060406117548a828b0161150d565b95505060606117658a828b0161150d565b94505060806117768a828b016116c4565b93505060a06117878a828b016116f0565b92505060c06117988a828b016116f0565b91505092959891949750929550565b600080604083850312156117be576117bd611489565b5b60006117cc858286016114d7565b92505060206117dd858286016114d7565b9150509250929050565b7f4e487b7100000000000000000000000000000000000000000000000000000000600052602260045260246000fd5b6000600282049050600182168061182e57607f821691505b602082108103611841576118406117e7565b5b50919050565b7f4e487b7100000000000000000000000000000000000000000000000000000000600052601160045260246000fd5b6000611881826114ec565b915061188c836114ec565b9250827fffffffffffffffffffffffffffffffffffffffffffffffffffffffffffffffff038211156118c1576118c0611847565b5b828201905092915050565b7f4c50546f6b656e3a2063616e6e6f74206d696e74203000000000000000000000600082015250565b60006119026016836113d9565b915061190d826118cc565b602082019050919050565b60006020820190508181036000830152611931816118f5565b9050919050565b7f45524332303a2064656372656173656420616c6c6f77616e63652062656c6f7760008201527f207a65726f000000000000000000000000000000000000000000000000000000602082015250565b60006119946025836113d9565b915061199f82611938565b604082019050919050565b600060208201905081810360008301526119c381611987565b9050919050565b7f45524332305065726d69743a206578706972656420646561646c696e65000000600082015250565b6000611a00601d836113d9565b9150611a0b826119ca565b602082019050919050565b60006020820190508181036000830152611a2f816119f3565b9050919050565b611a3f816114ae565b82525050565b600060c082019050611a5a6000830189611656565b611a676020830188611a36565b611a746040830187611a36565b611a816060830186611598565b611a8e6080830185611598565b611a9b60a0830184611598565b979650505050505050565b7f45524332305065726d69743a20696e76616c6964207369676e61747572650000600082015250565b6000611adc601e836113d9565b9150611ae782611aa6565b602082019050919050565b60006020820190508181036000830152611b0b81611acf565b9050919050565b7f45524332303a20617070726f76652066726f6d20746865207a65726f2061646460008201527f7265737300000000000000000000000000000000000000000000000000000000602082015250565b6000611b6e6024836113d9565b9150611b7982611b12565b604082019050919050565b60006020820190508181036000830152611b9d81611b61565b9050919050565b7f45524332303a20617070726f766520746f20746865207a65726f20616464726560008201527f7373000000000000000000000000000000000000000000000000000000000000602082015250565b6000611c006022836113d9565b9150611c0b82611ba4565b604082019050919050565b60006020820190508181036000830152611c2f81611bf3565b9050919050565b7f45524332303a20696e73756666696369656e7420616c6c6f77616e6365000000600082015250565b6000611c6c601d836113d9565b9150611c7782611c36565b602082019050919050565b60006020820190508181036000830152611c9b81611c5f565b9050919050565b7f45524332303a207472616e736665722066726f6d20746865207a65726f20616460008201527f6472657373000000000000000000000000000000000000000000000000000000602082015250565b6000611cfe6025836113d9565b9150611d0982611ca2565b604082019050919050565b60006020820190508181036000830152611d2d81611cf1565b9050919050565b7f45524332303a207472616e7366657220746f20746865207a65726f206164647260008201527f6573730000000000000000000000000000000000000000000000000000000000602082015250565b6000611d906023836113d9565b9150611d9b82611d34565b604082019050919050565b60006020820190508181036000830152611dbf81611d83565b9050919050565b7f45524332303a207472616e7366657220616d6f756e742065786365656473206260008201527f616c616e63650000000000000000000000000000000000000000000000000000602082015250565b6000611e226026836113d9565b9150611e2d82611dc6565b604082019050919050565b60006020820190508181036000830152611e5181611e15565b9050919050565b7f45524332303a206d696e7420746f20746865207a65726f206164647265737300600082015250565b6000611e8e601f836113d9565b9150611e9982611e58565b602082019050919050565b60006020820190508181036000830152611ebd81611e81565b9050919050565b600060a082019050611ed96000830188611656565b611ee66020830187611656565b611ef36040830186611656565b611f006060830185611598565b611f0d6080830184611a36565b9695505050505050565b600081905092915050565b7f1901000000000000000000000000000000000000000000000000000000000000600082015250565b6000611f58600283611f17565b9150611f6382611f22565b600282019050919050565b6000819050919050565b611f89611f848261164c565b611f6e565b82525050565b6000611f9a82611f4b565b9150611fa68285611f78565b602082019150611fb68284611f78565b6020820191508190509392505050565b6000608082019050611fdb6000830187611656565b611fe86020830186611622565b611ff56040830185611656565b6120026060830184611656565b95945050505050565b7f4e487b7100000000000000000000000000000000000000000000000000000000600052602160045260246000fd5b7f45434453413a20696e76616c6964207369676e61747572650000000000000000600082015250565b60006120706018836113d9565b915061207b8261203a565b602082019050919050565b6000602082019050818103600083015261209f81612063565b9050919050565b7f45434453413a20696e76616c6964207369676e6174757265206c656e67746800600082015250565b60006120dc601f836113d9565b91506120e7826120a6565b602082019050919050565b6000602082019050818103600083015261210b816120cf565b9050919050565b7f45434453413a20696e76616c6964207369676e6174757265202773272076616c60008201527f7565000000000000000000000000000000000000000000000000000000000000602082015250565b600061216e6022836113d9565b915061217982612112565b604082019050919050565b6000602082019050818103600083015261219d81612161565b9050919050565b7f45434453413a20696e76616c6964207369676e6174757265202776272076616c60008201527f7565000000000000000000000000000000000000000000000000000000000000602082015250565b60006122006022836113d9565b915061220b826121a4565b604082019050919050565b6000602082019050818103600083015261222f816121f3565b905091905056fea264697066735822122062119bcc732f63ebf1c7e5fea3aa46ffbfc6d2a26e405df01dfe0e4d49c5797964736f6c634300080f0033",
  "devdoc": {
    "details": "Very simple ERC20 Token example, where all tokens are pre-assigned to the creator. Note they can later distribute these tokens as they wish using `transfer` and other `ERC20` functions. Based on https://github.com/OpenZeppelin/openzeppelin-contracts/blob/v2.5.1/contracts/examples/SimpleToken.sol",
    "kind": "dev",
    "methods": {
      "DOMAIN_SEPARATOR()": {
        "details": "See {IERC20Permit-DOMAIN_SEPARATOR}."
      },
      "allowance(address,address)": {
        "details": "See {IERC20-allowance}."
      },
      "approve(address,uint256)": {
        "details": "See {IERC20-approve}. NOTE: If `amount` is the maximum `uint256`, the allowance is not updated on `transferFrom`. This is semantically equivalent to an infinite approval. Requirements: - `spender` cannot be the zero address."
      },
      "balanceOf(address)": {
        "details": "See {IERC20-balanceOf}."
      },
      "constructor": {
        "details": "Constructor that gives msg.sender all of existing tokens."
      },
      "decimals()": {
        "details": "Returns the number of decimals used to get its user representation. For example, if `decimals` equals `2`, a balance of `505` tokens should be displayed to a user as `5.05` (`505 / 10 ** 2`). Tokens usually opt for a value of 18, imitating the relationship between Ether and Wei. This is the value {ERC20} uses, unless this function is overridden; NOTE: This information is only used for _display_ purposes: it in no way affects any of the arithmetic of the contract, including {IERC20-balanceOf} and {IERC20-transfer}."
      },
      "decreaseAllowance(address,uint256)": {
        "details": "Atomically decreases the allowance granted to `spender` by the caller. This is an alternative to {approve} that can be used as a mitigation for problems described in {IERC20-approve}. Emits an {Approval} event indicating the updated allowance. Requirements: - `spender` cannot be the zero address. - `spender` must have allowance for the caller of at least `subtractedValue`."
      },
      "increaseAllowance(address,uint256)": {
        "details": "Atomically increases the allowance granted to `spender` by the caller. This is an alternative to {approve} that can be used as a mitigation for problems described in {IERC20-approve}. Emits an {Approval} event indicating the updated allowance. Requirements: - `spender` cannot be the zero address."
      },
      "mint(address,uint256)": {
        "details": "only owner can call this mint function",
        "params": {
          "amount": "amount of tokens to mint",
          "recipient": "address of account to receive the tokens"
        }
      },
      "name()": {
        "details": "Returns the name of the token."
      },
      "nonces(address)": {
        "details": "See {IERC20Permit-nonces}."
      },
      "permit(address,address,uint256,uint256,uint8,bytes32,bytes32)": {
        "details": "See {IERC20Permit-permit}."
      },
      "symbol()": {
        "details": "Returns the symbol of the token, usually a shorter version of the name."
      },
      "totalSupply()": {
        "details": "See {IERC20-totalSupply}."
      },
      "transfer(address,uint256)": {
        "details": "See {IERC20-transfer}. Requirements: - `to` cannot be the zero address. - the caller must have a balance of at least `amount`."
      },
      "transferFrom(address,address,uint256)": {
        "details": "See {IERC20-transferFrom}. Emits an {Approval} event indicating the updated allowance. This is not required by the EIP. See the note at the beginning of {ERC20}. NOTE: Does not update the allowance if the current allowance is the maximum `uint256`. Requirements: - `from` and `to` cannot be the zero address. - `from` must have a balance of at least `amount`. - the caller must have allowance for ``from``'s tokens of at least `amount`."
      }
    },
    "title": "SimpleToken",
    "version": 1
  },
  "userdoc": {
    "kind": "user",
    "methods": {
      "mint(address,uint256)": {
        "notice": "Mints the given amount of LPToken to the recipient."
      }
    },
    "version": 1
  },
  "storageLayout": {
    "storage": [
      {
        "astId": 847,
        "contract": "contracts/mocks/SimpleToken.sol:SimpleToken",
        "label": "_balances",
        "offset": 0,
        "slot": "0",
        "type": "t_mapping(t_address,t_uint256)"
      },
      {
        "astId": 853,
        "contract": "contracts/mocks/SimpleToken.sol:SimpleToken",
        "label": "_allowances",
        "offset": 0,
        "slot": "1",
        "type": "t_mapping(t_address,t_mapping(t_address,t_uint256))"
      },
      {
        "astId": 855,
        "contract": "contracts/mocks/SimpleToken.sol:SimpleToken",
        "label": "_totalSupply",
        "offset": 0,
        "slot": "2",
        "type": "t_uint256"
      },
      {
        "astId": 857,
        "contract": "contracts/mocks/SimpleToken.sol:SimpleToken",
        "label": "_name",
        "offset": 0,
        "slot": "3",
        "type": "t_string_storage"
      },
      {
        "astId": 859,
        "contract": "contracts/mocks/SimpleToken.sol:SimpleToken",
        "label": "_symbol",
        "offset": 0,
        "slot": "4",
        "type": "t_string_storage"
      },
      {
        "astId": 1543,
        "contract": "contracts/mocks/SimpleToken.sol:SimpleToken",
        "label": "_nonces",
        "offset": 0,
        "slot": "5",
        "type": "t_mapping(t_address,t_struct(Counter)2332_storage)"
      },
      {
        "astId": 1551,
        "contract": "contracts/mocks/SimpleToken.sol:SimpleToken",
        "label": "_PERMIT_TYPEHASH_DEPRECATED_SLOT",
        "offset": 0,
        "slot": "6",
        "type": "t_bytes32"
      }
    ],
    "types": {
      "t_address": {
        "encoding": "inplace",
        "label": "address",
        "numberOfBytes": "20"
      },
      "t_bytes32": {
        "encoding": "inplace",
        "label": "bytes32",
        "numberOfBytes": "32"
      },
      "t_mapping(t_address,t_mapping(t_address,t_uint256))": {
        "encoding": "mapping",
        "key": "t_address",
        "label": "mapping(address => mapping(address => uint256))",
        "numberOfBytes": "32",
        "value": "t_mapping(t_address,t_uint256)"
      },
      "t_mapping(t_address,t_struct(Counter)2332_storage)": {
        "encoding": "mapping",
        "key": "t_address",
        "label": "mapping(address => struct Counters.Counter)",
        "numberOfBytes": "32",
        "value": "t_struct(Counter)2332_storage"
      },
      "t_mapping(t_address,t_uint256)": {
        "encoding": "mapping",
        "key": "t_address",
        "label": "mapping(address => uint256)",
        "numberOfBytes": "32",
        "value": "t_uint256"
      },
      "t_string_storage": {
        "encoding": "bytes",
        "label": "string",
        "numberOfBytes": "32"
      },
      "t_struct(Counter)2332_storage": {
        "encoding": "inplace",
        "label": "struct Counters.Counter",
        "members": [
          {
            "astId": 2331,
            "contract": "contracts/mocks/SimpleToken.sol:SimpleToken",
            "label": "_value",
            "offset": 0,
            "slot": "0",
            "type": "t_uint256"
          }
        ],
        "numberOfBytes": "32"
      },
      "t_uint256": {
        "encoding": "inplace",
        "label": "uint256",
        "numberOfBytes": "32"
      }
    }
  }
}