{
  "address": "0x944F8939909e192afBe1aE22739ee60A7Af9592D",
  "abi": [
    {
      "anonymous": false,
      "inputs": [
        {
          "indexed": false,
          "internalType": "uint8",
          "name": "version",
          "type": "uint8"
        }
      ],
      "name": "Initialized",
      "type": "event"
    },
    {
      "anonymous": false,
      "inputs": [
        {
          "indexed": true,
          "internalType": "address",
          "name": "previousOwner",
          "type": "address"
        },
        {
          "indexed": true,
          "internalType": "address",
          "name": "newOwner",
          "type": "address"
        }
      ],
      "name": "OwnershipTransferred",
      "type": "event"
    },
    {
      "anonymous": false,
      "inputs": [
        {
          "indexed": true,
          "internalType": "uint32",
          "name": "domain",
          "type": "uint32"
        },
        {
          "indexed": true,
          "internalType": "bytes32",
          "name": "id",
          "type": "bytes32"
        },
        {
          "indexed": true,
          "internalType": "address",
          "name": "representation",
          "type": "address"
        }
      ],
      "name": "TokenDeployed",
      "type": "event"
    },
    {
      "inputs": [
        {
          "internalType": "bytes32",
          "name": "",
          "type": "bytes32"
        }
      ],
      "name": "canonicalToRepresentation",
      "outputs": [
        {
          "internalType": "address",
          "name": "",
          "type": "address"
        }
      ],
      "stateMutability": "view",
      "type": "function"
    },
    {
      "inputs": [
        {
          "internalType": "uint32",
          "name": "_domain",
          "type": "uint32"
        },
        {
          "internalType": "bytes32",
          "name": "_id",
          "type": "bytes32"
        }
      ],
      "name": "ensureLocalToken",
      "outputs": [
        {
          "internalType": "address",
          "name": "_local",
          "type": "address"
        }
      ],
      "stateMutability": "nonpayable",
      "type": "function"
    },
    {
      "inputs": [
        {
          "internalType": "address",
          "name": "_representation",
          "type": "address"
        }
      ],
      "name": "getCanonicalTokenId",
      "outputs": [
        {
          "internalType": "uint32",
          "name": "_domain",
          "type": "uint32"
        },
        {
          "internalType": "bytes32",
          "name": "_id",
          "type": "bytes32"
        }
      ],
      "stateMutability": "view",
      "type": "function"
    },
    {
      "inputs": [
        {
          "internalType": "uint32",
          "name": "_domain",
          "type": "uint32"
        },
        {
          "internalType": "bytes32",
          "name": "_id",
          "type": "bytes32"
        }
      ],
      "name": "getLocalAddress",
      "outputs": [
        {
          "internalType": "address",
          "name": "_local",
          "type": "address"
        }
      ],
      "stateMutability": "view",
      "type": "function"
    },
    {
      "inputs": [
        {
          "internalType": "uint32",
          "name": "_domain",
          "type": "uint32"
        },
        {
          "internalType": "address",
          "name": "_id",
          "type": "address"
        }
      ],
      "name": "getLocalAddress",
      "outputs": [
        {
          "internalType": "address",
          "name": "_local",
          "type": "address"
        }
      ],
      "stateMutability": "view",
      "type": "function"
    },
    {
      "inputs": [
        {
          "internalType": "uint32",
          "name": "_domain",
          "type": "uint32"
        },
        {
          "internalType": "bytes32",
          "name": "_id",
          "type": "bytes32"
        }
      ],
      "name": "getRepresentationAddress",
      "outputs": [
        {
          "internalType": "address",
          "name": "_representation",
          "type": "address"
        }
      ],
      "stateMutability": "view",
      "type": "function"
    },
    {
      "inputs": [
        {
          "internalType": "address",
          "name": "_local",
          "type": "address"
        }
      ],
      "name": "getTokenId",
      "outputs": [
        {
          "internalType": "uint32",
          "name": "_domain",
          "type": "uint32"
        },
        {
          "internalType": "bytes32",
          "name": "_id",
          "type": "bytes32"
        }
      ],
      "stateMutability": "view",
      "type": "function"
    },
    {
      "inputs": [
        {
          "internalType": "address",
          "name": "_tokenBeacon",
          "type": "address"
        },
        {
          "internalType": "address",
          "name": "_xAppConnectionManager",
          "type": "address"
        }
      ],
      "name": "initialize",
      "outputs": [],
      "stateMutability": "nonpayable",
      "type": "function"
    },
    {
      "inputs": [
        {
          "internalType": "address",
          "name": "_token",
          "type": "address"
        }
      ],
      "name": "isLocalOrigin",
      "outputs": [
        {
          "internalType": "bool",
          "name": "",
          "type": "bool"
        }
      ],
      "stateMutability": "view",
      "type": "function"
    },
    {
      "inputs": [
        {
          "internalType": "uint32",
          "name": "_domain",
          "type": "uint32"
        },
        {
          "internalType": "bytes32",
          "name": "_id",
          "type": "bytes32"
        }
      ],
      "name": "mustHaveLocalToken",
      "outputs": [
        {
          "internalType": "contract IERC20",
          "name": "",
          "type": "address"
        }
      ],
      "stateMutability": "view",
      "type": "function"
    },
    {
      "inputs": [],
      "name": "owner",
      "outputs": [
        {
          "internalType": "address",
          "name": "",
          "type": "address"
        }
      ],
      "stateMutability": "view",
      "type": "function"
    },
    {
      "inputs": [],
      "name": "renounceOwnership",
      "outputs": [],
      "stateMutability": "nonpayable",
      "type": "function"
    },
    {
      "inputs": [
        {
          "internalType": "address",
          "name": "",
          "type": "address"
        }
      ],
      "name": "representationToCanonical",
      "outputs": [
        {
          "internalType": "uint32",
          "name": "domain",
          "type": "uint32"
        },
        {
          "internalType": "bytes32",
          "name": "id",
          "type": "bytes32"
        }
      ],
      "stateMutability": "view",
      "type": "function"
    },
    {
      "inputs": [
        {
          "internalType": "address",
          "name": "_xAppConnectionManager",
          "type": "address"
        }
      ],
      "name": "setXAppConnectionManager",
      "outputs": [],
      "stateMutability": "nonpayable",
      "type": "function"
    },
    {
      "inputs": [],
      "name": "tokenBeacon",
      "outputs": [
        {
          "internalType": "address",
          "name": "",
          "type": "address"
        }
      ],
      "stateMutability": "view",
      "type": "function"
    },
    {
      "inputs": [
        {
          "internalType": "address",
          "name": "newOwner",
          "type": "address"
        }
      ],
      "name": "transferOwnership",
      "outputs": [],
      "stateMutability": "nonpayable",
      "type": "function"
    },
    {
      "inputs": [],
      "name": "xAppConnectionManager",
      "outputs": [
        {
          "internalType": "contract XAppConnectionManager",
          "name": "",
          "type": "address"
        }
      ],
      "stateMutability": "view",
      "type": "function"
    }
  ],
  "transactionHash": "0x1c575f07119c50f3b2953f479eb9d0edfa41474713a73dfa398e6af8cd6822f9",
  "args": [],
  "numDeployments": 1,
  "solcInputHash": "d216661bc5af561d28ec5fd946b59ebb",
  "bytecode": "0x608060405234801561001057600080fd5b50612e6e806100206000396000f3fe60806040523480156200001157600080fd5b5060043610620001245760003560e01c80638da5cb5b11620000b1578063ccf5a77c116200007b578063ccf5a77c1462000335578063d82d05311462000357578063dc9685a7146200038d578063f153768614620003c3578063f2fde38b14620003fa5762000124565b80638da5cb5b1462000270578063b869d89a1462000292578063b9730eaf14620002c8578063c86415cb14620002ff5762000124565b806341bdc8b511620000f357806341bdc8b514620001ee578063485cc955146200020e578063589b3c64146200022e578063715018a614620002645762000124565b806303e418c214620001295780631ecf6f9f14620001605780632c3da59c14620001965780633339df9614620001cc575b600080fd5b620001476004803603810190620001419190620016b8565b6200041a565b6040516200015792919062001726565b60405180910390f35b6200017e600480360381019062000178919062001784565b6200044e565b6040516200018d9190620017c7565b60405180910390f35b620001b46004803603810190620001ae919062001815565b62000481565b604051620001c39190620018c7565b60405180910390f35b620001d66200050e565b604051620001e5919062001909565b60405180910390f35b6200020c6004803603810190620002069190620016b8565b62000534565b005b6200022c600480360381019062000226919062001926565b62000582565b005b6200024c600480360381019062000246919062001815565b62000712565b6040516200025b9190620017c7565b60405180910390f35b6200026e62000759565b005b6200027a62000765565b604051620002899190620017c7565b60405180910390f35b620002b06004803603810190620002aa919062001815565b6200078f565b604051620002bf9190620017c7565b60405180910390f35b620002e66004803603810190620002e09190620016b8565b620007f3565b604051620002f692919062001726565b60405180910390f35b6200031d6004803603810190620003179190620016b8565b62000888565b6040516200032c91906200198a565b60405180910390f35b6200033f62000908565b6040516200034e9190620017c7565b60405180910390f35b6200037560048036038101906200036f9190620019a7565b6200092e565b604051620003849190620017c7565b60405180910390f35b620003ab6004803603810190620003a5919062001815565b6200094e565b604051620003ba9190620017c7565b60405180910390f35b620003e16004803603810190620003db9190620016b8565b620009b2565b604051620003f192919062001726565b60405180910390f35b620004186004803603810190620004129190620016b8565b62000a7a565b005b60986020528060005260406000206000915090508060000160009054906101000a900463ffffffff16908060010154905082565b60996020528060005260406000206000915054906101000a900473ffffffffffffffffffffffffffffffffffffffff1681565b60008062000490848462000712565b9050600073ffffffffffffffffffffffffffffffffffffffff168173ffffffffffffffffffffffffffffffffffffffff160362000504576040517f08c379a0000000000000000000000000000000000000000000000000000000008152600401620004fb9062001a4f565b60405180910390fd5b8091505092915050565b606560009054906101000a900473ffffffffffffffffffffffffffffffffffffffff1681565b6200053e62000b04565b80606560006101000a81548173ffffffffffffffffffffffffffffffffffffffff021916908373ffffffffffffffffffffffffffffffffffffffff16021790555050565b60008060019054906101000a900460ff16159050808015620005b45750600160008054906101000a900460ff1660ff16105b80620005e55750620005c63062000b89565b158015620005e45750600160008054906101000a900460ff1660ff16145b5b62000627576040517f08c379a00000000000000000000000000000000000000000000000000000000081526004016200061e9062001ae7565b60405180910390fd5b60016000806101000a81548160ff021916908360ff160217905550801562000665576001600060016101000a81548160ff0219169083151502179055505b82609760006101000a81548173ffffffffffffffffffffffffffffffffffffffff021916908373ffffffffffffffffffffffffffffffffffffffff160217905550620006b18262000bac565b80156200070d5760008060016101000a81548160ff0219169083151502179055507f7f26b83ff96e1f2b6a682f133852f6798a09c465da95921460cefb3847402498600160405162000704919062001b59565b60405180910390a15b505050565b60006200071e62000bfa565b63ffffffff168363ffffffff160362000744576200073c8262000c0b565b905062000753565b6200075083836200094e565b90505b92915050565b6200076362000b04565b565b6000603360009054906101000a900473ffffffffffffffffffffffffffffffffffffffff16905090565b60006200079b62000b04565b620007a7838362000712565b9050600073ffffffffffffffffffffffffffffffffffffffff168173ffffffffffffffffffffffffffffffffffffffff1603620007ed57620007ea838362000c18565b90505b92915050565b6000806000609860008573ffffffffffffffffffffffffffffffffffffffff1673ffffffffffffffffffffffffffffffffffffffff1681526020019081526020016000206040518060400160405290816000820160009054906101000a900463ffffffff1663ffffffff1663ffffffff1681526020016001820154815250509050806000015192508060200151915050915091565b600080609860008473ffffffffffffffffffffffffffffffffffffffff1673ffffffffffffffffffffffffffffffffffffffff16815260200190815260200160002060000160009054906101000a900463ffffffff1663ffffffff1614620008f4576000905062000903565b6000823b905060008114159150505b919050565b609760009054906101000a900473ffffffffffffffffffffffffffffffffffffffff1681565b60006200094683620009408462000e45565b62000712565b905092915050565b6000806200095d848462000e68565b90506000620009728262ffffff191662000ec0565b90506099600082815260200190815260200160002060009054906101000a900473ffffffffffffffffffffffffffffffffffffffff169250505092915050565b6000806000609860008573ffffffffffffffffffffffffffffffffffffffff1673ffffffffffffffffffffffffffffffffffffffff1681526020019081526020016000206040518060400160405290816000820160009054906101000a900463ffffffff1663ffffffff1663ffffffff16815260200160018201548152505090506000816000015163ffffffff160362000a655762000a5062000bfa565b925062000a5d8462000e45565b915062000a74565b80600001519250806020015191505b50915091565b62000a8462000b04565b600073ffffffffffffffffffffffffffffffffffffffff168173ffffffffffffffffffffffffffffffffffffffff160362000af6576040517f08c379a000000000000000000000000000000000000000000000000000000000815260040162000aed9062001bec565b60405180910390fd5b62000b018162000f07565b50565b62000b0e62000fcd565b73ffffffffffffffffffffffffffffffffffffffff1662000b2e62000765565b73ffffffffffffffffffffffffffffffffffffffff161462000b87576040517f08c379a000000000000000000000000000000000000000000000000000000000815260040162000b7e9062001c5e565b60405180910390fd5b565b6000808273ffffffffffffffffffffffffffffffffffffffff163b119050919050565b80606560006101000a81548173ffffffffffffffffffffffffffffffffffffffff021916908373ffffffffffffffffffffffffffffffffffffffff16021790555062000bf762000fd5565b50565b600062000c0662001033565b905090565b60008160001c9050919050565b6000609760009054906101000a900473ffffffffffffffffffffffffffffffffffffffff1660405162000c4b9062001640565b62000c57919062001cbb565b604051809103906000f08015801562000c74573d6000803e3d6000fd5b5090508073ffffffffffffffffffffffffffffffffffffffff16638129fc1c6040518163ffffffff1660e01b8152600401600060405180830381600087803b15801562000cc057600080fd5b505af115801562000cd5573d6000803e3d6000fd5b5050505060008062000ce88585620010ce565b915091508273ffffffffffffffffffffffffffffffffffffffff1663654935f4838360126040518463ffffffff1660e01b815260040162000d2c9392919062001dc3565b600060405180830381600087803b15801562000d4757600080fd5b505af115801562000d5c573d6000803e3d6000fd5b505050508273ffffffffffffffffffffffffffffffffffffffff1663f2fde38b62000d8662000765565b6040518263ffffffff1660e01b815260040162000da49190620017c7565b600060405180830381600087803b15801562000dbf57600080fd5b505af115801562000dd4573d6000803e3d6000fd5b5050505062000de58585856200117a565b62000df2858585620011f8565b8273ffffffffffffffffffffffffffffffffffffffff16848663ffffffff167f84d5e3618bf276f3d29a931646fdd996b398a3efa3cf6bceefc1fe7f0304059f60405160405180910390a4505092915050565b60008173ffffffffffffffffffffffffffffffffffffffff1660001b9050919050565b600062000eb86001600781111562000e855762000e8462001e0e565b5b848460405160200162000e9a92919062001e9e565b604051602081830303815290604052620012a590919063ffffffff16565b905092915050565b60008062000ece83620012d2565b6bffffffffffffffffffffffff169050600062000eeb84620012f2565b6bffffffffffffffffffffffff16905080822092505050919050565b6000603360009054906101000a900473ffffffffffffffffffffffffffffffffffffffff16905081603360006101000a81548173ffffffffffffffffffffffffffffffffffffffff021916908373ffffffffffffffffffffffffffffffffffffffff1602179055508173ffffffffffffffffffffffffffffffffffffffff168173ffffffffffffffffffffffffffffffffffffffff167f8be0079c531659141344cd1fd0a4f28419497f9722a3daafe3b4186f6b6457e060405160405180910390a35050565b600033905090565b600060019054906101000a900460ff1662001027576040517f08c379a00000000000000000000000000000000000000000000000000000000081526004016200101e9062001f44565b60405180910390fd5b6200103162001312565b565b6000606560009054906101000a900473ffffffffffffffffffffffffffffffffffffffff1673ffffffffffffffffffffffffffffffffffffffff16638d3638f46040518163ffffffff1660e01b8152600401602060405180830381865afa158015620010a3573d6000803e3d6000fd5b505050506040513d601f19601f82011682018060405250810190620010c9919062001f7d565b905090565b6060806000620010e18460001c6200137a565b915050620010ef856200145c565b81604051602001620011039291906200205c565b6040516020818303038152906040529250600f67ffffffffffffffff81111562001132576200113162002099565b5b6040519080825280601f01601f191660200182016040528015620011655781602001600182028036833780820191505090505b50915060208301516020830152509250929050565b600062001188848462000e68565b905060006200119d8262ffffff191662000ec0565b9050826099600083815260200190815260200160002060006101000a81548173ffffffffffffffffffffffffffffffffffffffff021916908373ffffffffffffffffffffffffffffffffffffffff1602179055505050505050565b82609860008373ffffffffffffffffffffffffffffffffffffffff1673ffffffffffffffffffffffffffffffffffffffff16815260200190815260200160002060000160006101000a81548163ffffffff021916908363ffffffff16021790555081609860008373ffffffffffffffffffffffffffffffffffffffff1673ffffffffffffffffffffffffffffffffffffffff16815260200190815260200160002060010181905550505050565b600080835190506000602085019050620012c88464ffffffffff168284620014e8565b9250505092915050565b6000806bffffffffffffffffffffffff9050808360781c16915050919050565b6000806bffffffffffffffffffffffff9050808360181c16915050919050565b600060019054906101000a900460ff1662001364576040517f08c379a00000000000000000000000000000000000000000000000000000000081526004016200135b9062001f44565b60405180910390fd5b620013786200137262000fcd565b62000f07565b565b6000806000601f90505b600f8160ff161115620013e9576000600882620013a29190620020f7565b60ff1685901c9050620013b5816200155d565b61ffff168417935060108260ff1614620013d157601084901b93505b50600181620013e1919062002139565b905062001384565b506000600f90505b60ff8160ff161015620014565760006008826200140f9190620020f7565b60ff1685901c905062001422816200155d565b61ffff168317925060008260ff16146200143e57601083901b92505b506001816200144e919062002139565b9050620013f1565b50915091565b6000806030905060005b600a8160ff161015620014e157600881620014829190620020f7565b60ff1682600a86620014959190620021a3565b63ffffffff16620014a79190620021db565b69ffffffffffffffffffff16901b83179250600a84620014c8919062002222565b9350600181620014d991906200225a565b905062001466565b5050919050565b6000806200150083856200159a90919063ffffffff16565b90506040518111156200151257600090505b6000810362001545577fffffffffffffffffffffffffffffffffffffffffffffffffffffffffff00000091505062001556565b62001552858585620015b2565b9150505b9392505050565b60006200157160048360ff16901c620015d3565b60ff168117905060088161ffff16901b90506200158e82620015d3565b60ff1681179050919050565b60008183620015aa9190620022a2565b905092915050565b600083811760601b905082811760601b905081811760181b90509392505050565b600080600f831690506040518060400160405280601081526020017f30313233343536373839616263646566000000000000000000000000000000008152508160ff16815181106200162a5762001629620022ff565b5b602001015160f81c60f81b60f81c915050919050565b610b0a806200232f83390190565b600080fd5b600073ffffffffffffffffffffffffffffffffffffffff82169050919050565b6000620016808262001653565b9050919050565b620016928162001673565b81146200169e57600080fd5b50565b600081359050620016b28162001687565b92915050565b600060208284031215620016d157620016d06200164e565b5b6000620016e184828501620016a1565b91505092915050565b600063ffffffff82169050919050565b6200170581620016ea565b82525050565b6000819050919050565b62001720816200170b565b82525050565b60006040820190506200173d6000830185620016fa565b6200174c602083018462001715565b9392505050565b6200175e816200170b565b81146200176a57600080fd5b50565b6000813590506200177e8162001753565b92915050565b6000602082840312156200179d576200179c6200164e565b5b6000620017ad848285016200176d565b91505092915050565b620017c18162001673565b82525050565b6000602082019050620017de6000830184620017b6565b92915050565b620017ef81620016ea565b8114620017fb57600080fd5b50565b6000813590506200180f81620017e4565b92915050565b600080604083850312156200182f576200182e6200164e565b5b60006200183f85828601620017fe565b925050602062001852858286016200176d565b9150509250929050565b6000819050919050565b600062001887620018816200187b8462001653565b6200185c565b62001653565b9050919050565b60006200189b8262001866565b9050919050565b6000620018af826200188e565b9050919050565b620018c181620018a2565b82525050565b6000602082019050620018de6000830184620018b6565b92915050565b6000620018f1826200188e565b9050919050565b6200190381620018e4565b82525050565b6000602082019050620019206000830184620018f8565b92915050565b6000806040838503121562001940576200193f6200164e565b5b60006200195085828601620016a1565b92505060206200196385828601620016a1565b9150509250929050565b60008115159050919050565b62001984816200196d565b82525050565b6000602082019050620019a1600083018462001979565b92915050565b60008060408385031215620019c157620019c06200164e565b5b6000620019d185828601620017fe565b9250506020620019e485828601620016a1565b9150509250929050565b600082825260208201905092915050565b7f21746f6b656e0000000000000000000000000000000000000000000000000000600082015250565b600062001a37600683620019ee565b915062001a4482620019ff565b602082019050919050565b6000602082019050818103600083015262001a6a8162001a28565b9050919050565b7f496e697469616c697a61626c653a20636f6e747261637420697320616c72656160008201527f647920696e697469616c697a6564000000000000000000000000000000000000602082015250565b600062001acf602e83620019ee565b915062001adc8262001a71565b604082019050919050565b6000602082019050818103600083015262001b028162001ac0565b9050919050565b6000819050919050565b600060ff82169050919050565b600062001b4162001b3b62001b358462001b09565b6200185c565b62001b13565b9050919050565b62001b538162001b20565b82525050565b600060208201905062001b70600083018462001b48565b92915050565b7f4f776e61626c653a206e6577206f776e657220697320746865207a65726f206160008201527f6464726573730000000000000000000000000000000000000000000000000000602082015250565b600062001bd4602683620019ee565b915062001be18262001b76565b604082019050919050565b6000602082019050818103600083015262001c078162001bc5565b9050919050565b7f4f776e61626c653a2063616c6c6572206973206e6f7420746865206f776e6572600082015250565b600062001c46602083620019ee565b915062001c538262001c0e565b602082019050919050565b6000602082019050818103600083015262001c798162001c37565b9050919050565b600082825260208201905092915050565b50565b600062001ca360008362001c80565b915062001cb08262001c91565b600082019050919050565b600060408201905062001cd26000830184620017b6565b818103602083015262001ce58162001c94565b905092915050565b600081519050919050565b60005b8381101562001d1857808201518184015260208101905062001cfb565b8381111562001d28576000848401525b50505050565b6000601f19601f8301169050919050565b600062001d4c8262001ced565b62001d588185620019ee565b935062001d6a81856020860162001cf8565b62001d758162001d2e565b840191505092915050565b6000819050919050565b600062001dab62001da562001d9f8462001d80565b6200185c565b62001b13565b9050919050565b62001dbd8162001d8a565b82525050565b6000606082019050818103600083015262001ddf818662001d3f565b9050818103602083015262001df5818562001d3f565b905062001e06604083018462001db2565b949350505050565b7f4e487b7100000000000000000000000000000000000000000000000000000000600052602160045260246000fd5b60008160e01b9050919050565b600062001e578262001e3d565b9050919050565b62001e7362001e6d82620016ea565b62001e4a565b82525050565b6000819050919050565b62001e9862001e92826200170b565b62001e79565b82525050565b600062001eac828562001e5e565b60048201915062001ebe828462001e83565b6020820191508190509392505050565b7f496e697469616c697a61626c653a20636f6e7472616374206973206e6f74206960008201527f6e697469616c697a696e67000000000000000000000000000000000000000000602082015250565b600062001f2c602b83620019ee565b915062001f398262001ece565b604082019050919050565b6000602082019050818103600083015262001f5f8162001f1d565b9050919050565b60008151905062001f7781620017e4565b92915050565b60006020828403121562001f965762001f956200164e565b5b600062001fa68482850162001f66565b91505092915050565b600069ffffffffffffffffffff82169050919050565b60008160b01b9050919050565b600062001fdf8262001fc5565b9050919050565b62001ffb62001ff58262001faf565b62001fd2565b82525050565b600081905092915050565b7f2e00000000000000000000000000000000000000000000000000000000000000600082015250565b60006200204460018362002001565b915062002051826200200c565b600182019050919050565b60006200206a828562001fe6565b600a820191506200207b8262002035565b915062002089828462001e5e565b6004820191508190509392505050565b7f4e487b7100000000000000000000000000000000000000000000000000000000600052604160045260246000fd5b7f4e487b7100000000000000000000000000000000000000000000000000000000600052601160045260246000fd5b6000620021048262001b13565b9150620021118362001b13565b92508160ff04831182151516156200212e576200212d620020c8565b5b828202905092915050565b6000620021468262001b13565b9150620021538362001b13565b925082821015620021695762002168620020c8565b5b828203905092915050565b7f4e487b7100000000000000000000000000000000000000000000000000000000600052601260045260246000fd5b6000620021b082620016ea565b9150620021bd83620016ea565b925082620021d057620021cf62002174565b5b828206905092915050565b6000620021e88262001faf565b9150620021f58362001faf565b92508269ffffffffffffffffffff03821115620022175762002216620020c8565b5b828201905092915050565b60006200222f82620016ea565b91506200223c83620016ea565b9250826200224f576200224e62002174565b5b828204905092915050565b6000620022678262001b13565b9150620022748362001b13565b92508260ff038211156200228d576200228c620020c8565b5b828201905092915050565b6000819050919050565b6000620022af8262002298565b9150620022bc8362002298565b9250827fffffffffffffffffffffffffffffffffffffffffffffffffffffffffffffffff03821115620022f457620022f3620020c8565b5b828201905092915050565b7f4e487b7100000000000000000000000000000000000000000000000000000000600052603260045260246000fdfe60a060405260405162000b0a38038062000b0a8339818101604052810190620000299190620004c9565b6200003f826200014960201b6200002f1760201c565b62000081576040517f08c379a0000000000000000000000000000000000000000000000000000000008152600401620000789062000590565b60405180910390fd5b8173ffffffffffffffffffffffffffffffffffffffff1660808173ffffffffffffffffffffffffffffffffffffffff16815250506000620000c8836200016c60201b60201c565b9050620000e0816200014960201b6200002f1760201c565b62000122576040517f08c379a0000000000000000000000000000000000000000000000000000000008152600401620001199062000602565b60405180910390fd5b60008251111562000140576200013f81836200024360201b60201c565b5b505050620007b2565b6000808273ffffffffffffffffffffffffffffffffffffffff163b119050919050565b60008060008373ffffffffffffffffffffffffffffffffffffffff16604051620001969062000659565b600060405180830381855afa9150503d8060008114620001d3576040519150601f19603f3d011682016040523d82523d6000602084013e620001d8565b606091505b509150915081819062000223576040517f08c379a00000000000000000000000000000000000000000000000000000000081526004016200021a9190620006bc565b60405180910390fd5b50808060200190518101906200023a919062000725565b92505050919050565b60008273ffffffffffffffffffffffffffffffffffffffff16826040516200026c919062000799565b600060405180830381855af49150503d8060008114620002a9576040519150601f19603f3d011682016040523d82523d6000602084013e620002ae565b606091505b5050905080620002c2573d6000803e3d6000fd5b505050565b6000604051905090565b600080fd5b600080fd5b600073ffffffffffffffffffffffffffffffffffffffff82169050919050565b60006200030882620002db565b9050919050565b6200031a81620002fb565b81146200032657600080fd5b50565b6000815190506200033a816200030f565b92915050565b600080fd5b600080fd5b6000601f19601f8301169050919050565b7f4e487b7100000000000000000000000000000000000000000000000000000000600052604160045260246000fd5b62000395826200034a565b810181811067ffffffffffffffff82111715620003b757620003b66200035b565b5b80604052505050565b6000620003cc620002c7565b9050620003da82826200038a565b919050565b600067ffffffffffffffff821115620003fd57620003fc6200035b565b5b62000408826200034a565b9050602081019050919050565b60005b838110156200043557808201518184015260208101905062000418565b8381111562000445576000848401525b50505050565b6000620004626200045c84620003df565b620003c0565b90508281526020810184848401111562000481576200048062000345565b5b6200048e84828562000415565b509392505050565b600082601f830112620004ae57620004ad62000340565b5b8151620004c08482602086016200044b565b91505092915050565b60008060408385031215620004e357620004e2620002d1565b5b6000620004f38582860162000329565b925050602083015167ffffffffffffffff811115620005175762000516620002d6565b5b620005258582860162000496565b9150509250929050565b600082825260208201905092915050565b7f626561636f6e2021636f6e747261637400000000000000000000000000000000600082015250565b6000620005786010836200052f565b9150620005858262000540565b602082019050919050565b60006020820190508181036000830152620005ab8162000569565b9050919050565b7f626561636f6e20696d706c656d656e746174696f6e2021636f6e747261637400600082015250565b6000620005ea601f836200052f565b9150620005f782620005b2565b602082019050919050565b600060208201905081810360008301526200061d81620005db565b9050919050565b600081905092915050565b50565b60006200064160008362000624565b91506200064e826200062f565b600082019050919050565b6000620006668262000632565b9150819050919050565b600081519050919050565b6000620006888262000670565b6200069481856200052f565b9350620006a681856020860162000415565b620006b1816200034a565b840191505092915050565b60006020820190508181036000830152620006d881846200067b565b905092915050565b6000620006ed82620002db565b9050919050565b620006ff81620006e0565b81146200070b57600080fd5b50565b6000815190506200071f81620006f4565b92915050565b6000602082840312156200073e576200073d620002d1565b5b60006200074e848285016200070e565b91505092915050565b600081519050919050565b60006200076f8262000757565b6200077b818562000624565b93506200078d81856020860162000415565b80840191505092915050565b6000620007a7828462000762565b915081905092915050565b60805161033d620007cd60003960006059015261033d6000f3fe6080604052366100135761001161001d565b005b61001b61001d565b005b61002d610028610052565b610082565b565b6000808273ffffffffffffffffffffffffffffffffffffffff163b119050919050565b600061007d7f00000000000000000000000000000000000000000000000000000000000000006100a8565b905090565b3660008037600080366000845af43d6000803e80600081146100a3573d6000f35b3d6000fd5b60008060008373ffffffffffffffffffffffffffffffffffffffff166040516100d0906101a7565b600060405180830381855afa9150503d806000811461010b576040519150601f19603f3d011682016040523d82523d6000602084013e610110565b606091505b5091509150818190610158576040517f08c379a000000000000000000000000000000000000000000000000000000000815260040161014f9190610255565b60405180910390fd5b508080602001905181019061016d91906102da565b92505050919050565b600081905092915050565b50565b6000610191600083610176565b915061019c82610181565b600082019050919050565b60006101b282610184565b9150819050919050565b600081519050919050565b600082825260208201905092915050565b60005b838110156101f65780820151818401526020810190506101db565b83811115610205576000848401525b50505050565b6000601f19601f8301169050919050565b6000610227826101bc565b61023181856101c7565b93506102418185602086016101d8565b61024a8161020b565b840191505092915050565b6000602082019050818103600083015261026f818461021c565b905092915050565b600080fd5b600073ffffffffffffffffffffffffffffffffffffffff82169050919050565b60006102a78261027c565b9050919050565b6102b78161029c565b81146102c257600080fd5b50565b6000815190506102d4816102ae565b92915050565b6000602082840312156102f0576102ef610277565b5b60006102fe848285016102c5565b9150509291505056fea2646970667358221220bcb9f2f146572a5dcc09b024584674fb34ec57498b63ca92348272b081f3418364736f6c634300080f0033a2646970667358221220500f5f98c1c2760d2fae704fe3275e3eec1db75d10dcf8be62ef39d2a89d549d64736f6c634300080f0033",
  "devdoc": {
    "events": {
      "TokenDeployed(uint32,bytes32,address)": {
        "params": {
          "domain": "the domain of the chain where the canonical asset is deployed",
          "id": "the bytes32 address of the canonical token contract",
          "representation": "the address of the newly locally deployed representation contract"
        }
      }
    },
    "kind": "dev",
    "methods": {
      "ensureLocalToken(uint32,bytes32)": {
        "params": {
          "_domain": "the token's native domain",
          "_id": "the token's id on its native domain"
        },
        "returns": {
          "_local": "the address of the local token contract"
        }
      },
      "getCanonicalTokenId(address)": {
        "params": {
          "_representation": "the address of the representation contract"
        },
        "returns": {
          "_domain": "the domain of the canonical version.",
          "_id": "the identifier of the canonical version in its domain."
        }
      },
      "getLocalAddress(uint32,address)": {
        "details": "If the token is local, it will return the local address. If the token is non-local and no local representation exists, this will return `address(0)`.",
        "params": {
          "_domain": "the domain of the canonical version.",
          "_id": "the identifier of the canonical version in its domain."
        },
        "returns": {
          "_local": "the local address of the token contract (representation or canonical)"
        }
      },
      "getLocalAddress(uint32,bytes32)": {
        "details": "If the token is local, it will return the local address. If the token is non-local and no local representation exists, this will return `address(0)`.",
        "params": {
          "_domain": "the domain of the canonical version.",
          "_id": "the identifier of the canonical version in its domain."
        },
        "returns": {
          "_local": "the local address of the token contract (representation or canonical)"
        }
      },
      "getRepresentationAddress(uint32,bytes32)": {
        "params": {
          "_domain": "the domain of the canonical version.",
          "_id": "the identifier of the canonical version in its domain."
        },
        "returns": {
          "_representation": "the address of the representation contract"
        }
      },
      "getTokenId(address)": {
        "params": {
          "_local": "the local address of the token contract (representation or canonical)"
        },
        "returns": {
          "_domain": "canonical domain",
          "_id": "canonical identifier on that domain"
        }
      },
      "isLocalOrigin(address)": {
        "returns": {
          "_0": "TRUE if token is locally originating"
        }
      },
      "mustHaveLocalToken(uint32,bytes32)": {
        "params": {
          "_domain": "the token's native domain",
          "_id": "the token's id on its native domain"
        },
        "returns": {
          "_0": "the local IERC20 token contract"
        }
      },
      "owner()": {
        "details": "Returns the address of the current owner."
      },
      "renounceOwnership()": {
        "details": "should be impossible to renounce ownership; we override OpenZeppelin OwnableUpgradeable's implementation of renounceOwnership to make it a no-op"
      },
      "setXAppConnectionManager(address)": {
        "params": {
          "_xAppConnectionManager": "The address of the xAppConnectionManager contract"
        }
      },
      "transferOwnership(address)": {
        "details": "Transfers ownership of the contract to a new account (`newOwner`). Can only be called by the current owner."
      }
    },
    "title": "TokenRegistry",
    "version": 1
  },
  "userdoc": {
    "events": {
      "TokenDeployed(uint32,bytes32,address)": {
        "notice": "emitted when a representation token contract is deployed"
      }
    },
    "kind": "user",
    "methods": {
      "ensureLocalToken(uint32,bytes32)": {
        "notice": "Get the address of the local token for the provided tokenId; if the token is remote and no local representation exists, deploy the representation contract"
      },
      "getCanonicalTokenId(address)": {
        "notice": "Look up the canonical token ID for a representation token"
      },
      "getLocalAddress(uint32,address)": {
        "notice": "Looks up the local address corresponding to a domain/id pair."
      },
      "getLocalAddress(uint32,bytes32)": {
        "notice": "Looks up the local address corresponding to a domain/id pair."
      },
      "getRepresentationAddress(uint32,bytes32)": {
        "notice": "Look up the representation address for a canonical token"
      },
      "getTokenId(address)": {
        "notice": "Return tokenId for a local token address"
      },
      "isLocalOrigin(address)": {
        "notice": "Determine if token is of local origin"
      },
      "mustHaveLocalToken(uint32,bytes32)": {
        "notice": "Return the local token contract for the canonical tokenId; revert if there is no local token"
      },
      "setXAppConnectionManager(address)": {
        "notice": "Modify the contract the xApp uses to validate Replica contracts"
      }
    },
    "notice": "manages a registry of token contracts on this chain - We sort token types as \"representation token\" or \"locally originating token\". Locally originating - a token contract that was originally deployed on the local chain Representation (repr) - a token that was originally deployed on some other chain - When the BridgeRouter handles an incoming message, it determines whether the transfer is for an asset of local origin. If not, it checks for an existing representation contract. If no such representation exists, it deploys a new representation contract. It then stores the relationship in the \"reprToCanonical\" and \"canonicalToRepr\" mappings to ensure we can always perform a lookup in either direction Note that locally originating tokens should NEVER be represented in these lookup tables.",
    "version": 1
  },
  "storageLayout": {
    "storage": [
      {
        "astId": 138,
        "contract": "contracts/TokenRegistry.sol:TokenRegistry",
        "label": "_initialized",
        "offset": 0,
        "slot": "0",
        "type": "t_uint8"
      },
      {
        "astId": 141,
        "contract": "contracts/TokenRegistry.sol:TokenRegistry",
        "label": "_initializing",
        "offset": 1,
        "slot": "0",
        "type": "t_bool"
      },
      {
        "astId": 566,
        "contract": "contracts/TokenRegistry.sol:TokenRegistry",
        "label": "__gap",
        "offset": 0,
        "slot": "1",
        "type": "t_array(t_uint256)50_storage"
      },
      {
        "astId": 10,
        "contract": "contracts/TokenRegistry.sol:TokenRegistry",
        "label": "_owner",
        "offset": 0,
        "slot": "51",
        "type": "t_address"
      },
      {
        "astId": 130,
        "contract": "contracts/TokenRegistry.sol:TokenRegistry",
        "label": "__gap",
        "offset": 0,
        "slot": "52",
        "type": "t_array(t_uint256)49_storage"
      },
      {
        "astId": 11424,
        "contract": "contracts/TokenRegistry.sol:TokenRegistry",
        "label": "xAppConnectionManager",
        "offset": 0,
        "slot": "101",
        "type": "t_contract(XAppConnectionManager)7982"
      },
      {
        "astId": 11428,
        "contract": "contracts/TokenRegistry.sol:TokenRegistry",
        "label": "__GAP",
        "offset": 0,
        "slot": "102",
        "type": "t_array(t_uint256)49_storage"
      },
      {
        "astId": 5571,
        "contract": "contracts/TokenRegistry.sol:TokenRegistry",
        "label": "tokenBeacon",
        "offset": 0,
        "slot": "151",
        "type": "t_address"
      },
      {
        "astId": 5576,
        "contract": "contracts/TokenRegistry.sol:TokenRegistry",
        "label": "representationToCanonical",
        "offset": 0,
        "slot": "152",
        "type": "t_mapping(t_address,t_struct(TokenId)4784_storage)"
      },
      {
        "astId": 5580,
        "contract": "contracts/TokenRegistry.sol:TokenRegistry",
        "label": "canonicalToRepresentation",
        "offset": 0,
        "slot": "153",
        "type": "t_mapping(t_bytes32,t_address)"
      }
    ],
    "types": {
      "t_address": {
        "encoding": "inplace",
        "label": "address",
        "numberOfBytes": "20"
      },
      "t_array(t_uint256)49_storage": {
        "base": "t_uint256",
        "encoding": "inplace",
        "label": "uint256[49]",
        "numberOfBytes": "1568"
      },
      "t_array(t_uint256)50_storage": {
        "base": "t_uint256",
        "encoding": "inplace",
        "label": "uint256[50]",
        "numberOfBytes": "1600"
      },
      "t_bool": {
        "encoding": "inplace",
        "label": "bool",
        "numberOfBytes": "1"
      },
      "t_bytes32": {
        "encoding": "inplace",
        "label": "bytes32",
        "numberOfBytes": "32"
      },
      "t_contract(XAppConnectionManager)7982": {
        "encoding": "inplace",
        "label": "contract XAppConnectionManager",
        "numberOfBytes": "20"
      },
      "t_mapping(t_address,t_struct(TokenId)4784_storage)": {
        "encoding": "mapping",
        "key": "t_address",
        "label": "mapping(address => struct BridgeMessage.TokenId)",
        "numberOfBytes": "32",
        "value": "t_struct(TokenId)4784_storage"
      },
      "t_mapping(t_bytes32,t_address)": {
        "encoding": "mapping",
        "key": "t_bytes32",
        "label": "mapping(bytes32 => address)",
        "numberOfBytes": "32",
        "value": "t_address"
      },
      "t_struct(TokenId)4784_storage": {
        "encoding": "inplace",
        "label": "struct BridgeMessage.TokenId",
        "members": [
          {
            "astId": 4781,
            "contract": "contracts/TokenRegistry.sol:TokenRegistry",
            "label": "domain",
            "offset": 0,
            "slot": "0",
            "type": "t_uint32"
          },
          {
            "astId": 4783,
            "contract": "contracts/TokenRegistry.sol:TokenRegistry",
            "label": "id",
            "offset": 0,
            "slot": "1",
            "type": "t_bytes32"
          }
        ],
        "numberOfBytes": "64"
      },
      "t_uint256": {
        "encoding": "inplace",
        "label": "uint256",
        "numberOfBytes": "32"
      },
      "t_uint32": {
        "encoding": "inplace",
        "label": "uint32",
        "numberOfBytes": "4"
      },
      "t_uint8": {
        "encoding": "inplace",
        "label": "uint8",
        "numberOfBytes": "1"
      }
    }
  }
}